{
  "abi": [
    {
      "inputs": [
        {
          "internalType": "address",
          "name": "token_",
          "type": "address"
        },
        {
          "internalType": "bytes32",
          "name": "merkleRoot_",
          "type": "bytes32"
        }
      ],
      "stateMutability": "nonpayable",
      "type": "constructor"
    },
    {
      "anonymous": false,
      "inputs": [
        {
          "indexed": false,
          "internalType": "address",
          "name": "account",
          "type": "address"
        },
        {
          "indexed": false,
          "internalType": "uint256",
          "name": "tokenId",
          "type": "uint256"
        },
        {
          "indexed": false,
          "internalType": "string",
          "name": "tokenURI",
          "type": "string"
        }
      ],
      "name": "Claimed",
      "type": "event"
    },
    {
      "inputs": [
        {
          "internalType": "string",
          "name": "tokenURI",
          "type": "string"
        },
        {
          "internalType": "bytes32[]",
          "name": "proof",
          "type": "bytes32[]"
        }
      ],
      "name": "claim",
      "outputs": [],
      "stateMutability": "nonpayable",
      "type": "function"
    },
    {
      "inputs": [
        {
          "internalType": "address",
          "name": "recipient",
          "type": "address"
        }
      ],
      "name": "isClaimed",
      "outputs": [
        {
          "internalType": "bool",
          "name": "",
          "type": "bool"
        }
      ],
      "stateMutability": "view",
      "type": "function"
    },
    {
      "inputs": [],
      "name": "merkleRoot",
      "outputs": [
        {
          "internalType": "bytes32",
          "name": "",
          "type": "bytes32"
        }
      ],
      "stateMutability": "view",
      "type": "function"
    },
    {
      "inputs": [],
      "name": "token",
      "outputs": [
        {
          "internalType": "address",
          "name": "",
          "type": "address"
        }
      ],
      "stateMutability": "view",
      "type": "function"
    },
    {
      "inputs": [
        {
          "internalType": "address",
          "name": "recipient",
          "type": "address"
        },
        {
          "internalType": "string",
          "name": "tokenURI",
          "type": "string"
        },
        {
          "internalType": "bytes32[]",
          "name": "proof",
          "type": "bytes32[]"
        }
      ],
      "name": "verifyEntitled",
      "outputs": [
        {
          "internalType": "bool",
          "name": "",
          "type": "bool"
        }
      ],
      "stateMutability": "view",
      "type": "function"
    },
    {
      "inputs": [
        {
          "internalType": "address",
          "name": "",
          "type": "address"
        }
      ],
      "name": "withdrawn",
      "outputs": [
        {
          "internalType": "bool",
          "name": "",
          "type": "bool"
        }
      ],
      "stateMutability": "view",
      "type": "function"
    }
  ],
  "bytecode": "60c060405234801561001057600080fd5b5060405161094338038061094383398101604081905261002f9161004a565b60609190911b6001600160601b03191660805260a052610082565b6000806040838503121561005c578182fd5b82516001600160a01b0381168114610072578283fd5b6020939093015192949293505050565b60805160601c60a05161088c6100b760003960008181606c015261043e01526000818161012d01526102bb015261088c6000f3fe608060405234801561001057600080fd5b50600436106100625760003560e01c80632eb4a7ab146100675780636ef61092146100a157806372532d07146100d45780638cc08025146100e9578063ab7af54c14610115578063fc0c546a14610128575b600080fd5b61008e7f000000000000000000000000000000000000000000000000000000000000000081565b6040519081526020015b60405180910390f35b6100c46100af36600461055b565b60006020819052908152604090205460ff1681565b6040519015158152602001610098565b6100e76100e236600461063f565b610167565b005b6100c46100f736600461055b565b6001600160a01b031660009081526020819052604090205460ff1690565b6100c461012336600461057c565b6103a7565b61014f7f000000000000000000000000000000000000000000000000000000000000000081565b6040516001600160a01b039091168152602001610098565b3360009081526020819052604090205460ff16156101e45760405162461bcd60e51b815260206004820152602f60248201527f596f75206861766520616c72656164792077697468647261776e20796f75722060448201526e32b73a34ba3632b2103a37b5b2b71760891b60648201526084015b60405180910390fd5b6102553385858080601f016020809104026020016040519081016040528093929190818152602001838380828437600092019190915250506040805160208089028281018201909352888252909350889250879182918501908490808284376000920191909152506103a792505050565b6102a15760405162461bcd60e51b815260206004820181905260248201527f5468652070726f6f6620636f756c64206e6f742062652076657269666965642e60448201526064016101db565b60405163d0def52160e01b81526000906001600160a01b037f0000000000000000000000000000000000000000000000000000000000000000169063d0def521906102f490339089908990600401610794565b602060405180830381600087803b15801561030e57600080fd5b505af1158015610322573d6000803e3d6000fd5b505050506040513d601f19601f8201168201806040525081019061034691906106fb565b3360008181526020819052604090819020805460ff19166001179055519192507faaf4f52f2d9453d1bd23cd1b1cd2388a7dd01f328cfe74ef0ad765fffd89d3f89161039891908490899089906107b9565b60405180910390a15050505050565b60008084846040516020016103bd92919061073c565b6040516020818303038152906040528051906020012090506103df81846103e8565b95945050505050565b600082815b835181101561043b576104278285838151811061041a57634e487b7160e01b600052603260045260246000fd5b6020026020010151610467565b915061043460018261081c565b90506103ed565b507f00000000000000000000000000000000000000000000000000000000000000001490505b92915050565b6000818310156104a35760408051602081018590529081018390526060015b604051602081830303815290604052805190602001209050610461565b6040805160208101849052908101849052606001610486565b80356001600160a01b03811681146104d357600080fd5b919050565b600082601f8301126104e8578081fd5b8135602067ffffffffffffffff82111561050457610504610840565b8160051b6105138282016107eb565b83815282810190868401838801850189101561052d578687fd5b8693505b8584101561054f578035835260019390930192918401918401610531565b50979650505050505050565b60006020828403121561056c578081fd5b610575826104bc565b9392505050565b600080600060608486031215610590578182fd5b610599846104bc565b925060208085013567ffffffffffffffff808211156105b6578485fd5b818701915087601f8301126105c9578485fd5b8135818111156105db576105db610840565b6105ed601f8201601f191685016107eb565b8181528985838601011115610600578687fd5b81858501868301378685838301015280965050506040870135925080831115610627578384fd5b5050610635868287016104d8565b9150509250925092565b60008060008060408587031215610654578081fd5b843567ffffffffffffffff8082111561066b578283fd5b818701915087601f83011261067e578283fd5b81358181111561068c578384fd5b88602082850101111561069d578384fd5b6020928301965094509086013590808211156106b7578283fd5b818701915087601f8301126106ca578283fd5b8135818111156106d8578384fd5b8860208260051b85010111156106ec578384fd5b95989497505060200194505050565b60006020828403121561070c578081fd5b5051919050565b81835281816020850137506000828201602090810191909152601f909101601f19169091010190565b6bffffffffffffffffffffffff198360601b16815260008251815b818110156107745760208186018101516014868401015201610757565b818111156107855782601483860101525b50919091016014019392505050565b6001600160a01b03841681526040602082018190526000906103df9083018486610713565b60018060a01b03851681528360208201526060604082015260006107e1606083018486610713565b9695505050505050565b604051601f8201601f1916810167ffffffffffffffff8111828210171561081457610814610840565b604052919050565b6000821982111561083b57634e487b7160e01b81526011600452602481fd5b500190565b634e487b7160e01b600052604160045260246000fdfea264697066735822122052f2d3f7c3362475e8f541a3a3e053d0da15ab5709844c4b0c3665c6a7b320a464736f6c63430008040033",
  "bytecodeSha1": "cb008a7d38324040944255d5913bd2985f319cfe",
  "compiler": {
    "evm_version": "istanbul",
    "optimizer": {
      "enabled": true,
      "runs": 200
    },
    "version": "0.8.4+commit.c7e474f2"
  },
  "contractName": "MerkleDrop",
  "language": "Solidity",
  "natspec": {
    "kind": "dev",
    "methods": {},
    "version": 1
  },
  "opcodes": "PUSH1 0x80 PUSH1 0x40 MSTORE CALLVALUE DUP1 ISZERO PUSH2 0x10 JUMPI PUSH1 0x0 DUP1 REVERT JUMPDEST POP PUSH1 0x4 CALLDATASIZE LT PUSH2 0x62 JUMPI PUSH1 0x0 CALLDATALOAD PUSH1 0xE0 SHR DUP1 PUSH4 0x2EB4A7AB EQ PUSH2 0x67 JUMPI DUP1 PUSH4 0x6EF61092 EQ PUSH2 0xA1 JUMPI DUP1 PUSH4 0x72532D07 EQ PUSH2 0xD4 JUMPI DUP1 PUSH4 0x8CC08025 EQ PUSH2 0xE9 JUMPI DUP1 PUSH4 0xAB7AF54C EQ PUSH2 0x115 JUMPI DUP1 PUSH4 0xFC0C546A EQ PUSH2 0x128 JUMPI JUMPDEST PUSH1 0x0 DUP1 REVERT JUMPDEST PUSH2 0x8E PUSH32 0x0 DUP2 JUMP JUMPDEST PUSH1 0x40 MLOAD SWAP1 DUP2 MSTORE PUSH1 0x20 ADD JUMPDEST PUSH1 0x40 MLOAD DUP1 SWAP2 SUB SWAP1 RETURN JUMPDEST PUSH2 0xC4 PUSH2 0xAF CALLDATASIZE PUSH1 0x4 PUSH2 0x55B JUMP JUMPDEST PUSH1 0x0 PUSH1 0x20 DUP2 SWAP1 MSTORE SWAP1 DUP2 MSTORE PUSH1 0x40 SWAP1 KECCAK256 SLOAD PUSH1 0xFF AND DUP2 JUMP JUMPDEST PUSH1 0x40 MLOAD SWAP1 ISZERO ISZERO DUP2 MSTORE PUSH1 0x20 ADD PUSH2 0x98 JUMP JUMPDEST PUSH2 0xE7 PUSH2 0xE2 CALLDATASIZE PUSH1 0x4 PUSH2 0x63F JUMP JUMPDEST PUSH2 0x167 JUMP JUMPDEST STOP JUMPDEST PUSH2 0xC4 PUSH2 0xF7 CALLDATASIZE PUSH1 0x4 PUSH2 0x55B JUMP JUMPDEST PUSH1 0x1 PUSH1 0x1 PUSH1 0xA0 SHL SUB AND PUSH1 0x0 SWAP1 DUP2 MSTORE PUSH1 0x20 DUP2 SWAP1 MSTORE PUSH1 0x40 SWAP1 KECCAK256 SLOAD PUSH1 0xFF AND SWAP1 JUMP JUMPDEST PUSH2 0xC4 PUSH2 0x123 CALLDATASIZE PUSH1 0x4 PUSH2 0x57C JUMP JUMPDEST PUSH2 0x3A7 JUMP JUMPDEST PUSH2 0x14F PUSH32 0x0 DUP2 JUMP JUMPDEST PUSH1 0x40 MLOAD PUSH1 0x1 PUSH1 0x1 PUSH1 0xA0 SHL SUB SWAP1 SWAP2 AND DUP2 MSTORE PUSH1 0x20 ADD PUSH2 0x98 JUMP JUMPDEST CALLER PUSH1 0x0 SWAP1 DUP2 MSTORE PUSH1 0x20 DUP2 SWAP1 MSTORE PUSH1 0x40 SWAP1 KECCAK256 SLOAD PUSH1 0xFF AND ISZERO PUSH2 0x1E4 JUMPI PUSH1 0x40 MLOAD PUSH3 0x461BCD PUSH1 0xE5 SHL DUP2 MSTORE PUSH1 0x20 PUSH1 0x4 DUP3 ADD MSTORE PUSH1 0x2F PUSH1 0x24 DUP3 ADD MSTORE PUSH32 0x596F75206861766520616C72656164792077697468647261776E20796F757220 PUSH1 0x44 DUP3 ADD MSTORE PUSH15 0x32B73A34BA3632B2103A37B5B2B717 PUSH1 0x89 SHL PUSH1 0x64 DUP3 ADD MSTORE PUSH1 0x84 ADD JUMPDEST PUSH1 0x40 MLOAD DUP1 SWAP2 SUB SWAP1 REVERT JUMPDEST PUSH2 0x255 CALLER DUP6 DUP6 DUP1 DUP1 PUSH1 0x1F ADD PUSH1 0x20 DUP1 SWAP2 DIV MUL PUSH1 0x20 ADD PUSH1 0x40 MLOAD SWAP1 DUP2 ADD PUSH1 0x40 MSTORE DUP1 SWAP4 SWAP3 SWAP2 SWAP1 DUP2 DUP2 MSTORE PUSH1 0x20 ADD DUP4 DUP4 DUP1 DUP3 DUP5 CALLDATACOPY PUSH1 0x0 SWAP3 ADD SWAP2 SWAP1 SWAP2 MSTORE POP POP PUSH1 0x40 DUP1 MLOAD PUSH1 0x20 DUP1 DUP10 MUL DUP3 DUP2 ADD DUP3 ADD SWAP1 SWAP4 MSTORE DUP9 DUP3 MSTORE SWAP1 SWAP4 POP DUP9 SWAP3 POP DUP8 SWAP2 DUP3 SWAP2 DUP6 ADD SWAP1 DUP5 SWAP1 DUP1 DUP3 DUP5 CALLDATACOPY PUSH1 0x0 SWAP3 ADD SWAP2 SWAP1 SWAP2 MSTORE POP PUSH2 0x3A7 SWAP3 POP POP POP JUMP JUMPDEST PUSH2 0x2A1 JUMPI PUSH1 0x40 MLOAD PUSH3 0x461BCD PUSH1 0xE5 SHL DUP2 MSTORE PUSH1 0x20 PUSH1 0x4 DUP3 ADD DUP2 SWAP1 MSTORE PUSH1 0x24 DUP3 ADD MSTORE PUSH32 0x5468652070726F6F6620636F756C64206E6F742062652076657269666965642E PUSH1 0x44 DUP3 ADD MSTORE PUSH1 0x64 ADD PUSH2 0x1DB JUMP JUMPDEST PUSH1 0x40 MLOAD PUSH4 0xD0DEF521 PUSH1 0xE0 SHL DUP2 MSTORE PUSH1 0x0 SWAP1 PUSH1 0x1 PUSH1 0x1 PUSH1 0xA0 SHL SUB PUSH32 0x0 AND SWAP1 PUSH4 0xD0DEF521 SWAP1 PUSH2 0x2F4 SWAP1 CALLER SWAP1 DUP10 SWAP1 DUP10 SWAP1 PUSH1 0x4 ADD PUSH2 0x794 JUMP JUMPDEST PUSH1 0x20 PUSH1 0x40 MLOAD DUP1 DUP4 SUB DUP2 PUSH1 0x0 DUP8 DUP1 EXTCODESIZE ISZERO DUP1 ISZERO PUSH2 0x30E JUMPI PUSH1 0x0 DUP1 REVERT JUMPDEST POP GAS CALL ISZERO DUP1 ISZERO PUSH2 0x322 JUMPI RETURNDATASIZE PUSH1 0x0 DUP1 RETURNDATACOPY RETURNDATASIZE PUSH1 0x0 REVERT JUMPDEST POP POP POP POP PUSH1 0x40 MLOAD RETURNDATASIZE PUSH1 0x1F NOT PUSH1 0x1F DUP3 ADD AND DUP3 ADD DUP1 PUSH1 0x40 MSTORE POP DUP2 ADD SWAP1 PUSH2 0x346 SWAP2 SWAP1 PUSH2 0x6FB JUMP JUMPDEST CALLER PUSH1 0x0 DUP2 DUP2 MSTORE PUSH1 0x20 DUP2 SWAP1 MSTORE PUSH1 0x40 SWAP1 DUP2 SWAP1 KECCAK256 DUP1 SLOAD PUSH1 0xFF NOT AND PUSH1 0x1 OR SWAP1 SSTORE MLOAD SWAP2 SWAP3 POP PUSH32 0xAAF4F52F2D9453D1BD23CD1B1CD2388A7DD01F328CFE74EF0AD765FFFD89D3F8 SWAP2 PUSH2 0x398 SWAP2 SWAP1 DUP5 SWAP1 DUP10 SWAP1 DUP10 SWAP1 PUSH2 0x7B9 JUMP JUMPDEST PUSH1 0x40 MLOAD DUP1 SWAP2 SUB SWAP1 LOG1 POP POP POP POP POP JUMP JUMPDEST PUSH1 0x0 DUP1 DUP5 DUP5 PUSH1 0x40 MLOAD PUSH1 0x20 ADD PUSH2 0x3BD SWAP3 SWAP2 SWAP1 PUSH2 0x73C JUMP JUMPDEST PUSH1 0x40 MLOAD PUSH1 0x20 DUP2 DUP4 SUB SUB DUP2 MSTORE SWAP1 PUSH1 0x40 MSTORE DUP1 MLOAD SWAP1 PUSH1 0x20 ADD KECCAK256 SWAP1 POP PUSH2 0x3DF DUP2 DUP5 PUSH2 0x3E8 JUMP JUMPDEST SWAP6 SWAP5 POP POP POP POP POP JUMP JUMPDEST PUSH1 0x0 DUP3 DUP2 JUMPDEST DUP4 MLOAD DUP2 LT ISZERO PUSH2 0x43B JUMPI PUSH2 0x427 DUP3 DUP6 DUP4 DUP2 MLOAD DUP2 LT PUSH2 0x41A JUMPI PUSH4 0x4E487B71 PUSH1 0xE0 SHL PUSH1 0x0 MSTORE PUSH1 0x32 PUSH1 0x4 MSTORE PUSH1 0x24 PUSH1 0x0 REVERT JUMPDEST PUSH1 0x20 MUL PUSH1 0x20 ADD ADD MLOAD PUSH2 0x467 JUMP JUMPDEST SWAP2 POP PUSH2 0x434 PUSH1 0x1 DUP3 PUSH2 0x81C JUMP JUMPDEST SWAP1 POP PUSH2 0x3ED JUMP JUMPDEST POP PUSH32 0x0 EQ SWAP1 POP JUMPDEST SWAP3 SWAP2 POP POP JUMP JUMPDEST PUSH1 0x0 DUP2 DUP4 LT ISZERO PUSH2 0x4A3 JUMPI PUSH1 0x40 DUP1 MLOAD PUSH1 0x20 DUP2 ADD DUP6 SWAP1 MSTORE SWAP1 DUP2 ADD DUP4 SWAP1 MSTORE PUSH1 0x60 ADD JUMPDEST PUSH1 0x40 MLOAD PUSH1 0x20 DUP2 DUP4 SUB SUB DUP2 MSTORE SWAP1 PUSH1 0x40 MSTORE DUP1 MLOAD SWAP1 PUSH1 0x20 ADD KECCAK256 SWAP1 POP PUSH2 0x461 JUMP JUMPDEST PUSH1 0x40 DUP1 MLOAD PUSH1 0x20 DUP2 ADD DUP5 SWAP1 MSTORE SWAP1 DUP2 ADD DUP5 SWAP1 MSTORE PUSH1 0x60 ADD PUSH2 0x486 JUMP JUMPDEST DUP1 CALLDATALOAD PUSH1 0x1 PUSH1 0x1 PUSH1 0xA0 SHL SUB DUP2 AND DUP2 EQ PUSH2 0x4D3 JUMPI PUSH1 0x0 DUP1 REVERT JUMPDEST SWAP2 SWAP1 POP JUMP JUMPDEST PUSH1 0x0 DUP3 PUSH1 0x1F DUP4 ADD SLT PUSH2 0x4E8 JUMPI DUP1 DUP2 REVERT JUMPDEST DUP2 CALLDATALOAD PUSH1 0x20 PUSH8 0xFFFFFFFFFFFFFFFF DUP3 GT ISZERO PUSH2 0x504 JUMPI PUSH2 0x504 PUSH2 0x840 JUMP JUMPDEST DUP2 PUSH1 0x5 SHL PUSH2 0x513 DUP3 DUP3 ADD PUSH2 0x7EB JUMP JUMPDEST DUP4 DUP2 MSTORE DUP3 DUP2 ADD SWAP1 DUP7 DUP5 ADD DUP4 DUP9 ADD DUP6 ADD DUP10 LT ISZERO PUSH2 0x52D JUMPI DUP7 DUP8 REVERT JUMPDEST DUP7 SWAP4 POP JUMPDEST DUP6 DUP5 LT ISZERO PUSH2 0x54F JUMPI DUP1 CALLDATALOAD DUP4 MSTORE PUSH1 0x1 SWAP4 SWAP1 SWAP4 ADD SWAP3 SWAP2 DUP5 ADD SWAP2 DUP5 ADD PUSH2 0x531 JUMP JUMPDEST POP SWAP8 SWAP7 POP POP POP POP POP POP POP JUMP JUMPDEST PUSH1 0x0 PUSH1 0x20 DUP3 DUP5 SUB SLT ISZERO PUSH2 0x56C JUMPI DUP1 DUP2 REVERT JUMPDEST PUSH2 0x575 DUP3 PUSH2 0x4BC JUMP JUMPDEST SWAP4 SWAP3 POP POP POP JUMP JUMPDEST PUSH1 0x0 DUP1 PUSH1 0x0 PUSH1 0x60 DUP5 DUP7 SUB SLT ISZERO PUSH2 0x590 JUMPI DUP2 DUP3 REVERT JUMPDEST PUSH2 0x599 DUP5 PUSH2 0x4BC JUMP JUMPDEST SWAP3 POP PUSH1 0x20 DUP1 DUP6 ADD CALLDATALOAD PUSH8 0xFFFFFFFFFFFFFFFF DUP1 DUP3 GT ISZERO PUSH2 0x5B6 JUMPI DUP5 DUP6 REVERT JUMPDEST DUP2 DUP8 ADD SWAP2 POP DUP8 PUSH1 0x1F DUP4 ADD SLT PUSH2 0x5C9 JUMPI DUP5 DUP6 REVERT JUMPDEST DUP2 CALLDATALOAD DUP2 DUP2 GT ISZERO PUSH2 0x5DB JUMPI PUSH2 0x5DB PUSH2 0x840 JUMP JUMPDEST PUSH2 0x5ED PUSH1 0x1F DUP3 ADD PUSH1 0x1F NOT AND DUP6 ADD PUSH2 0x7EB JUMP JUMPDEST DUP2 DUP2 MSTORE DUP10 DUP6 DUP4 DUP7 ADD ADD GT ISZERO PUSH2 0x600 JUMPI DUP7 DUP8 REVERT JUMPDEST DUP2 DUP6 DUP6 ADD DUP7 DUP4 ADD CALLDATACOPY DUP7 DUP6 DUP4 DUP4 ADD ADD MSTORE DUP1 SWAP7 POP POP POP PUSH1 0x40 DUP8 ADD CALLDATALOAD SWAP3 POP DUP1 DUP4 GT ISZERO PUSH2 0x627 JUMPI DUP4 DUP5 REVERT JUMPDEST POP POP PUSH2 0x635 DUP7 DUP3 DUP8 ADD PUSH2 0x4D8 JUMP JUMPDEST SWAP2 POP POP SWAP3 POP SWAP3 POP SWAP3 JUMP JUMPDEST PUSH1 0x0 DUP1 PUSH1 0x0 DUP1 PUSH1 0x40 DUP6 DUP8 SUB SLT ISZERO PUSH2 0x654 JUMPI DUP1 DUP2 REVERT JUMPDEST DUP5 CALLDATALOAD PUSH8 0xFFFFFFFFFFFFFFFF DUP1 DUP3 GT ISZERO PUSH2 0x66B JUMPI DUP3 DUP4 REVERT JUMPDEST DUP2 DUP8 ADD SWAP2 POP DUP8 PUSH1 0x1F DUP4 ADD SLT PUSH2 0x67E JUMPI DUP3 DUP4 REVERT JUMPDEST DUP2 CALLDATALOAD DUP2 DUP2 GT ISZERO PUSH2 0x68C JUMPI DUP4 DUP5 REVERT JUMPDEST DUP9 PUSH1 0x20 DUP3 DUP6 ADD ADD GT ISZERO PUSH2 0x69D JUMPI DUP4 DUP5 REVERT JUMPDEST PUSH1 0x20 SWAP3 DUP4 ADD SWAP7 POP SWAP5 POP SWAP1 DUP7 ADD CALLDATALOAD SWAP1 DUP1 DUP3 GT ISZERO PUSH2 0x6B7 JUMPI DUP3 DUP4 REVERT JUMPDEST DUP2 DUP8 ADD SWAP2 POP DUP8 PUSH1 0x1F DUP4 ADD SLT PUSH2 0x6CA JUMPI DUP3 DUP4 REVERT JUMPDEST DUP2 CALLDATALOAD DUP2 DUP2 GT ISZERO PUSH2 0x6D8 JUMPI DUP4 DUP5 REVERT JUMPDEST DUP9 PUSH1 0x20 DUP3 PUSH1 0x5 SHL DUP6 ADD ADD GT ISZERO PUSH2 0x6EC JUMPI DUP4 DUP5 REVERT JUMPDEST SWAP6 SWAP9 SWAP5 SWAP8 POP POP PUSH1 0x20 ADD SWAP5 POP POP POP JUMP JUMPDEST PUSH1 0x0 PUSH1 0x20 DUP3 DUP5 SUB SLT ISZERO PUSH2 0x70C JUMPI DUP1 DUP2 REVERT JUMPDEST POP MLOAD SWAP2 SWAP1 POP JUMP JUMPDEST DUP2 DUP4 MSTORE DUP2 DUP2 PUSH1 0x20 DUP6 ADD CALLDATACOPY POP PUSH1 0x0 DUP3 DUP3 ADD PUSH1 0x20 SWAP1 DUP2 ADD SWAP2 SWAP1 SWAP2 MSTORE PUSH1 0x1F SWAP1 SWAP2 ADD PUSH1 0x1F NOT AND SWAP1 SWAP2 ADD ADD SWAP1 JUMP JUMPDEST PUSH12 0xFFFFFFFFFFFFFFFFFFFFFFFF NOT DUP4 PUSH1 0x60 SHL AND DUP2 MSTORE PUSH1 0x0 DUP3 MLOAD DUP2 JUMPDEST DUP2 DUP2 LT ISZERO PUSH2 0x774 JUMPI PUSH1 0x20 DUP2 DUP7 ADD DUP2 ADD MLOAD PUSH1 0x14 DUP7 DUP5 ADD ADD MSTORE ADD PUSH2 0x757 JUMP JUMPDEST DUP2 DUP2 GT ISZERO PUSH2 0x785 JUMPI DUP3 PUSH1 0x14 DUP4 DUP7 ADD ADD MSTORE JUMPDEST POP SWAP2 SWAP1 SWAP2 ADD PUSH1 0x14 ADD SWAP4 SWAP3 POP POP POP JUMP JUMPDEST PUSH1 0x1 PUSH1 0x1 PUSH1 0xA0 SHL SUB DUP5 AND DUP2 MSTORE PUSH1 0x40 PUSH1 0x20 DUP3 ADD DUP2 SWAP1 MSTORE PUSH1 0x0 SWAP1 PUSH2 0x3DF SWAP1 DUP4 ADD DUP5 DUP7 PUSH2 0x713 JUMP JUMPDEST PUSH1 0x1 DUP1 PUSH1 0xA0 SHL SUB DUP6 AND DUP2 MSTORE DUP4 PUSH1 0x20 DUP3 ADD MSTORE PUSH1 0x60 PUSH1 0x40 DUP3 ADD MSTORE PUSH1 0x0 PUSH2 0x7E1 PUSH1 0x60 DUP4 ADD DUP5 DUP7 PUSH2 0x713 JUMP JUMPDEST SWAP7 SWAP6 POP POP POP POP POP POP JUMP JUMPDEST PUSH1 0x40 MLOAD PUSH1 0x1F DUP3 ADD PUSH1 0x1F NOT AND DUP2 ADD PUSH8 0xFFFFFFFFFFFFFFFF DUP2 GT DUP3 DUP3 LT OR ISZERO PUSH2 0x814 JUMPI PUSH2 0x814 PUSH2 0x840 JUMP JUMPDEST PUSH1 0x40 MSTORE SWAP2 SWAP1 POP JUMP JUMPDEST PUSH1 0x0 DUP3 NOT DUP3 GT ISZERO PUSH2 0x83B JUMPI PUSH4 0x4E487B71 PUSH1 0xE0 SHL DUP2 MSTORE PUSH1 0x11 PUSH1 0x4 MSTORE PUSH1 0x24 DUP2 REVERT JUMPDEST POP ADD SWAP1 JUMP JUMPDEST PUSH4 0x4E487B71 PUSH1 0xE0 SHL PUSH1 0x0 MSTORE PUSH1 0x41 PUSH1 0x4 MSTORE PUSH1 0x24 PUSH1 0x0 REVERT INVALID LOG2 PUSH5 0x6970667358 0x22 SLT KECCAK256 MSTORE CALLCODE 0xD3 0xF7 0xC3 CALLDATASIZE 0x24 PUSH22 0xE8F541A3A3E053D0DA15AB5709844C4B0C3665C6A7B3 KECCAK256 LOG4 PUSH5 0x736F6C6343 STOP ADDMOD DIV STOP CALLER ",
  "sha1": "7a938270f3bca0caadb68610f08ed17a0acf2b5b",
  "source": "/* Please read and review the Terms and Conditions governing this\n   Merkle Drop by visiting the Trustlines Foundation homepage. Any\n   interaction with this smart contract, including but not limited to\n   claiming Trustlines Network Tokens, is subject to these Terms and\n   Conditions.\n */\n\npragma solidity ^0.8.4;\n\nimport \"./NFT.sol\";\nimport \"@openzeppelin/contracts/utils/math/SafeMath.sol\";\nimport \"./IMerkleDistributor.sol\";\n\ncontract MerkleDrop is IMerkleDistributor {\n    address public immutable override token;\n    bytes32 public immutable override merkleRoot;\n\n    mapping(address => bool) public withdrawn;\n\n    constructor(address token_, bytes32 merkleRoot_) public {\n        token = token_;\n        merkleRoot = merkleRoot_;\n    }\n\n    function isClaimed(address recipient) public view override returns (bool) {\n        return withdrawn[recipient];\n    }\n\n    function claim(string calldata tokenURI, bytes32[] calldata proof)\n        external\n        override\n    {\n        require(\n            !withdrawn[msg.sender],\n            \"You have already withdrawn your entitled token.\"\n        );\n        require(\n            verifyEntitled(msg.sender, tokenURI, proof),\n            \"The proof could not be verified.\"\n        );\n\n        uint256 tokenId = AnnualNFT(token).mint(msg.sender, tokenURI);\n        withdrawn[msg.sender] = true;\n        emit Claimed(msg.sender, tokenId, tokenURI);\n    }\n\n    function verifyEntitled(\n        address recipient,\n        string memory tokenURI,\n        bytes32[] memory proof\n    ) public view returns (bool) {\n        // We need to pack the 20 bytes address to the 32 bytes value\n        // to match with the proof made with the python merkle-drop package\n        bytes32 leaf = keccak256(abi.encodePacked(recipient, tokenURI));\n        return verifyProof(leaf, proof);\n    }\n\n    function verifyProof(bytes32 leaf, bytes32[] memory proof)\n        internal\n        view\n        returns (bool)\n    {\n        bytes32 currentHash = leaf;\n\n        for (uint256 i = 0; i < proof.length; i += 1) {\n            currentHash = parentHash(currentHash, proof[i]);\n        }\n\n        return currentHash == merkleRoot;\n    }\n\n    function parentHash(bytes32 a, bytes32 b) internal pure returns (bytes32) {\n        if (a < b) {\n            return keccak256(abi.encode(a, b));\n        } else {\n            return keccak256(abi.encode(b, a));\n        }\n    }\n}\n",
  "sourcePath": "contracts/MerkleDrop.sol",
  "type": "contract"
}