{
  "abi": [
    {
      "inputs": [
        {
          "internalType": "address",
          "name": "token_",
          "type": "address"
        },
        {
          "internalType": "bytes32",
          "name": "merkleRoot_",
          "type": "bytes32"
        }
      ],
      "stateMutability": "nonpayable",
      "type": "constructor"
    },
    {
      "anonymous": false,
      "inputs": [
        {
          "indexed": false,
          "internalType": "address",
          "name": "account",
          "type": "address"
        },
        {
          "indexed": false,
          "internalType": "uint256",
          "name": "tokenId",
          "type": "uint256"
        },
        {
          "indexed": false,
          "internalType": "string",
          "name": "tokenURI",
          "type": "string"
        }
      ],
      "name": "Claimed",
      "type": "event"
    },
    {
      "anonymous": false,
      "inputs": [
        {
          "indexed": true,
          "internalType": "address",
          "name": "previousOwner",
          "type": "address"
        },
        {
          "indexed": true,
          "internalType": "address",
          "name": "newOwner",
          "type": "address"
        }
      ],
      "name": "OwnershipTransferred",
      "type": "event"
    },
    {
      "inputs": [
        {
          "internalType": "string",
          "name": "tokenURI",
          "type": "string"
        },
        {
          "internalType": "bytes32[]",
          "name": "proof",
          "type": "bytes32[]"
        }
      ],
      "name": "claim",
      "outputs": [],
      "stateMutability": "nonpayable",
      "type": "function"
    },
    {
      "inputs": [
        {
          "internalType": "address",
          "name": "recipient",
          "type": "address"
        }
      ],
      "name": "isClaimed",
      "outputs": [
        {
          "internalType": "bool",
          "name": "",
          "type": "bool"
        }
      ],
      "stateMutability": "view",
      "type": "function"
    },
    {
      "inputs": [],
      "name": "merkleRoot",
      "outputs": [
        {
          "internalType": "bytes32",
          "name": "",
          "type": "bytes32"
        }
      ],
      "stateMutability": "view",
      "type": "function"
    },
    {
      "inputs": [],
      "name": "owner",
      "outputs": [
        {
          "internalType": "address",
          "name": "",
          "type": "address"
        }
      ],
      "stateMutability": "view",
      "type": "function"
    },
    {
      "inputs": [],
      "name": "renounceOwnership",
      "outputs": [],
      "stateMutability": "nonpayable",
      "type": "function"
    },
    {
      "inputs": [
        {
          "internalType": "bytes32",
          "name": "merkleRoot_",
          "type": "bytes32"
        }
      ],
      "name": "setMerkleRoot",
      "outputs": [],
      "stateMutability": "nonpayable",
      "type": "function"
    },
    {
      "inputs": [],
      "name": "token",
      "outputs": [
        {
          "internalType": "address",
          "name": "",
          "type": "address"
        }
      ],
      "stateMutability": "view",
      "type": "function"
    },
    {
      "inputs": [
        {
          "internalType": "address",
          "name": "newOwner",
          "type": "address"
        }
      ],
      "name": "transferOwnership",
      "outputs": [],
      "stateMutability": "nonpayable",
      "type": "function"
    },
    {
      "inputs": [
        {
          "internalType": "address",
          "name": "recipient",
          "type": "address"
        },
        {
          "internalType": "string",
          "name": "tokenURI",
          "type": "string"
        },
        {
          "internalType": "bytes32[]",
          "name": "proof",
          "type": "bytes32[]"
        }
      ],
      "name": "verifyEntitled",
      "outputs": [
        {
          "internalType": "bool",
          "name": "",
          "type": "bool"
        }
      ],
      "stateMutability": "view",
      "type": "function"
    },
    {
      "inputs": [
        {
          "internalType": "address",
          "name": "",
          "type": "address"
        }
      ],
      "name": "withdrawn",
      "outputs": [
        {
          "internalType": "bool",
          "name": "",
          "type": "bool"
        }
      ],
      "stateMutability": "view",
      "type": "function"
    }
  ],
  "bytecode": "60a060405234801561001057600080fd5b50604051610b92380380610b9283398101604081905261002f9161008b565b600080546001600160a01b031916339081178255604051909182917f8be0079c531659141344cd1fd0a4f28419497f9722a3daafe3b4186f6b6457e0908290a35060609190911b6001600160601b0319166080526001556100c3565b6000806040838503121561009d578182fd5b82516001600160a01b03811681146100b3578283fd5b6020939093015192949293505050565b60805160601c610aaa6100e86000396000818161018501526103730152610aaa6000f3fe608060405234801561001057600080fd5b506004361061009e5760003560e01c80638cc08025116100665780638cc08025146101225780638da5cb5b14610135578063ab7af54c1461015a578063f2fde38b1461016d578063fc0c546a146101805761009e565b80632eb4a7ab146100a35780636ef61092146100bf578063715018a6146100f257806372532d07146100fc5780637cb647591461010f575b600080fd5b6100ac60015481565b6040519081526020015b60405180910390f35b6100e26100cd36600461072b565b60026020526000908152604090205460ff1681565b60405190151581526020016100b6565b6100fa6101a7565b005b6100fa61010a366004610827565b610224565b6100fa61011d36600461080f565b61045f565b6100e261013036600461072b565b61048e565b6000546001600160a01b03165b6040516001600160a01b0390911681526020016100b6565b6100e261016836600461074c565b6104b0565b6100fa61017b36600461072b565b6104f1565b6101427f000000000000000000000000000000000000000000000000000000000000000081565b6000546001600160a01b031633146101da5760405162461bcd60e51b81526004016101d1906109d4565b60405180910390fd5b600080546040516001600160a01b03909116907f8be0079c531659141344cd1fd0a4f28419497f9722a3daafe3b4186f6b6457e0908390a3600080546001600160a01b0319169055565b3360009081526002602052604090205460ff161561029c5760405162461bcd60e51b815260206004820152602f60248201527f596f75206861766520616c72656164792077697468647261776e20796f75722060448201526e32b73a34ba3632b2103a37b5b2b71760891b60648201526084016101d1565b61030d3385858080601f016020809104026020016040519081016040528093929190818152602001838380828437600092019190915250506040805160208089028281018201909352888252909350889250879182918501908490808284376000920191909152506104b092505050565b6103595760405162461bcd60e51b815260206004820181905260248201527f5468652070726f6f6620636f756c64206e6f742062652076657269666965642e60448201526064016101d1565b60405163d0def52160e01b81526000906001600160a01b037f0000000000000000000000000000000000000000000000000000000000000000169063d0def521906103ac9033908990899060040161097d565b602060405180830381600087803b1580156103c657600080fd5b505af11580156103da573d6000803e3d6000fd5b505050506040513d601f19601f820116820180604052508101906103fe91906108e3565b3360008181526002602052604090819020805460ff19166001179055519192507faaf4f52f2d9453d1bd23cd1b1cd2388a7dd01f328cfe74ef0ad765fffd89d3f89161045091908490899089906109a2565b60405180910390a15050505050565b6000546001600160a01b031633146104895760405162461bcd60e51b81526004016101d1906109d4565b600155565b6001600160a01b03811660009081526002602052604090205460ff165b919050565b60008084846040516020016104c6929190610925565b6040516020818303038152906040528051906020012090506104e881846105db565b95945050505050565b6000546001600160a01b0316331461051b5760405162461bcd60e51b81526004016101d1906109d4565b6001600160a01b0381166105805760405162461bcd60e51b815260206004820152602660248201527f4f776e61626c653a206e6577206f776e657220697320746865207a65726f206160448201526564647265737360d01b60648201526084016101d1565b600080546040516001600160a01b03808516939216917f8be0079c531659141344cd1fd0a4f28419497f9722a3daafe3b4186f6b6457e091a3600080546001600160a01b0319166001600160a01b0392909216919091179055565b600082815b835181101561062e5761061a8285838151811061060d57634e487b7160e01b600052603260045260246000fd5b602002602001015161063c565b9150610627600182610a3a565b90506105e0565b506001541490505b92915050565b6000818310156106785760408051602081018590529081018390526060015b604051602081830303815290604052805190602001209050610636565b604080516020810184905290810184905260600161065b565b80356001600160a01b03811681146104ab57600080fd5b600082601f8301126106b8578081fd5b8135602067ffffffffffffffff8211156106d4576106d4610a5e565b8160051b6106e3828201610a09565b8381528281019086840183880185018910156106fd578687fd5b8693505b8584101561071f578035835260019390930192918401918401610701565b50979650505050505050565b60006020828403121561073c578081fd5b61074582610691565b9392505050565b600080600060608486031215610760578182fd5b61076984610691565b925060208085013567ffffffffffffffff80821115610786578485fd5b818701915087601f830112610799578485fd5b8135818111156107ab576107ab610a5e565b6107bd601f8201601f19168501610a09565b81815289858386010111156107d0578687fd5b818585018683013786858383010152809650505060408701359250808311156107f7578384fd5b5050610805868287016106a8565b9150509250925092565b600060208284031215610820578081fd5b5035919050565b6000806000806040858703121561083c578081fd5b843567ffffffffffffffff80821115610853578283fd5b818701915087601f830112610866578283fd5b813581811115610874578384fd5b886020828501011115610885578384fd5b60209283019650945090860135908082111561089f578283fd5b818701915087601f8301126108b2578283fd5b8135818111156108c0578384fd5b8860208260051b85010111156108d4578384fd5b95989497505060200194505050565b6000602082840312156108f4578081fd5b5051919050565b60008284528282602086013780602084860101526020601f19601f85011685010190509392505050565b60006bffffffffffffffffffffffff198460601b1682528251815b8181101561095d5760208186018101516014868401015201610940565b8181111561096e5782601483860101525b50919091016014019392505050565b6001600160a01b03841681526040602082018190526000906104e890830184866108fb565b600060018060a01b0386168252846020830152606060408301526109ca6060830184866108fb565b9695505050505050565b6020808252818101527f4f776e61626c653a2063616c6c6572206973206e6f7420746865206f776e6572604082015260600190565b604051601f8201601f1916810167ffffffffffffffff81118282101715610a3257610a32610a5e565b604052919050565b60008219821115610a5957634e487b7160e01b81526011600452602481fd5b500190565b634e487b7160e01b600052604160045260246000fdfea26469706673582212205ecefe1e71b2a11c536433e1b58d963a12614129ae225acd9de34c076e26685664736f6c63430008030033",
  "bytecodeSha1": "2e0e51956c841991c6c1697ea957f4c582c899f8",
  "compiler": {
    "evm_version": "istanbul",
    "optimizer": {
      "enabled": true,
      "runs": 200
    },
    "version": "0.8.3+commit.8d00100c"
  },
  "contractName": "MerkleDrop",
  "language": "Solidity",
  "natspec": {
    "kind": "dev",
    "methods": {
      "owner()": {
        "details": "Returns the address of the current owner."
      },
      "renounceOwnership()": {
        "details": "Leaves the contract without owner. It will not be possible to call `onlyOwner` functions anymore. Can only be called by the current owner. NOTE: Renouncing ownership will leave the contract without an owner, thereby removing any functionality that is only available to the owner."
      },
      "transferOwnership(address)": {
        "details": "Transfers ownership of the contract to a new account (`newOwner`). Can only be called by the current owner."
      }
    },
    "version": 1
  },
  "opcodes": "PUSH1 0x80 PUSH1 0x40 MSTORE CALLVALUE DUP1 ISZERO PUSH2 0x10 JUMPI PUSH1 0x0 DUP1 REVERT JUMPDEST POP PUSH1 0x4 CALLDATASIZE LT PUSH2 0x9E JUMPI PUSH1 0x0 CALLDATALOAD PUSH1 0xE0 SHR DUP1 PUSH4 0x8CC08025 GT PUSH2 0x66 JUMPI DUP1 PUSH4 0x8CC08025 EQ PUSH2 0x122 JUMPI DUP1 PUSH4 0x8DA5CB5B EQ PUSH2 0x135 JUMPI DUP1 PUSH4 0xAB7AF54C EQ PUSH2 0x15A JUMPI DUP1 PUSH4 0xF2FDE38B EQ PUSH2 0x16D JUMPI DUP1 PUSH4 0xFC0C546A EQ PUSH2 0x180 JUMPI PUSH2 0x9E JUMP JUMPDEST DUP1 PUSH4 0x2EB4A7AB EQ PUSH2 0xA3 JUMPI DUP1 PUSH4 0x6EF61092 EQ PUSH2 0xBF JUMPI DUP1 PUSH4 0x715018A6 EQ PUSH2 0xF2 JUMPI DUP1 PUSH4 0x72532D07 EQ PUSH2 0xFC JUMPI DUP1 PUSH4 0x7CB64759 EQ PUSH2 0x10F JUMPI JUMPDEST PUSH1 0x0 DUP1 REVERT JUMPDEST PUSH2 0xAC PUSH1 0x1 SLOAD DUP2 JUMP JUMPDEST PUSH1 0x40 MLOAD SWAP1 DUP2 MSTORE PUSH1 0x20 ADD JUMPDEST PUSH1 0x40 MLOAD DUP1 SWAP2 SUB SWAP1 RETURN JUMPDEST PUSH2 0xE2 PUSH2 0xCD CALLDATASIZE PUSH1 0x4 PUSH2 0x72B JUMP JUMPDEST PUSH1 0x2 PUSH1 0x20 MSTORE PUSH1 0x0 SWAP1 DUP2 MSTORE PUSH1 0x40 SWAP1 KECCAK256 SLOAD PUSH1 0xFF AND DUP2 JUMP JUMPDEST PUSH1 0x40 MLOAD SWAP1 ISZERO ISZERO DUP2 MSTORE PUSH1 0x20 ADD PUSH2 0xB6 JUMP JUMPDEST PUSH2 0xFA PUSH2 0x1A7 JUMP JUMPDEST STOP JUMPDEST PUSH2 0xFA PUSH2 0x10A CALLDATASIZE PUSH1 0x4 PUSH2 0x827 JUMP JUMPDEST PUSH2 0x224 JUMP JUMPDEST PUSH2 0xFA PUSH2 0x11D CALLDATASIZE PUSH1 0x4 PUSH2 0x80F JUMP JUMPDEST PUSH2 0x45F JUMP JUMPDEST PUSH2 0xE2 PUSH2 0x130 CALLDATASIZE PUSH1 0x4 PUSH2 0x72B JUMP JUMPDEST PUSH2 0x48E JUMP JUMPDEST PUSH1 0x0 SLOAD PUSH1 0x1 PUSH1 0x1 PUSH1 0xA0 SHL SUB AND JUMPDEST PUSH1 0x40 MLOAD PUSH1 0x1 PUSH1 0x1 PUSH1 0xA0 SHL SUB SWAP1 SWAP2 AND DUP2 MSTORE PUSH1 0x20 ADD PUSH2 0xB6 JUMP JUMPDEST PUSH2 0xE2 PUSH2 0x168 CALLDATASIZE PUSH1 0x4 PUSH2 0x74C JUMP JUMPDEST PUSH2 0x4B0 JUMP JUMPDEST PUSH2 0xFA PUSH2 0x17B CALLDATASIZE PUSH1 0x4 PUSH2 0x72B JUMP JUMPDEST PUSH2 0x4F1 JUMP JUMPDEST PUSH2 0x142 PUSH32 0x0 DUP2 JUMP JUMPDEST PUSH1 0x0 SLOAD PUSH1 0x1 PUSH1 0x1 PUSH1 0xA0 SHL SUB AND CALLER EQ PUSH2 0x1DA JUMPI PUSH1 0x40 MLOAD PUSH3 0x461BCD PUSH1 0xE5 SHL DUP2 MSTORE PUSH1 0x4 ADD PUSH2 0x1D1 SWAP1 PUSH2 0x9D4 JUMP JUMPDEST PUSH1 0x40 MLOAD DUP1 SWAP2 SUB SWAP1 REVERT JUMPDEST PUSH1 0x0 DUP1 SLOAD PUSH1 0x40 MLOAD PUSH1 0x1 PUSH1 0x1 PUSH1 0xA0 SHL SUB SWAP1 SWAP2 AND SWAP1 PUSH32 0x8BE0079C531659141344CD1FD0A4F28419497F9722A3DAAFE3B4186F6B6457E0 SWAP1 DUP4 SWAP1 LOG3 PUSH1 0x0 DUP1 SLOAD PUSH1 0x1 PUSH1 0x1 PUSH1 0xA0 SHL SUB NOT AND SWAP1 SSTORE JUMP JUMPDEST CALLER PUSH1 0x0 SWAP1 DUP2 MSTORE PUSH1 0x2 PUSH1 0x20 MSTORE PUSH1 0x40 SWAP1 KECCAK256 SLOAD PUSH1 0xFF AND ISZERO PUSH2 0x29C JUMPI PUSH1 0x40 MLOAD PUSH3 0x461BCD PUSH1 0xE5 SHL DUP2 MSTORE PUSH1 0x20 PUSH1 0x4 DUP3 ADD MSTORE PUSH1 0x2F PUSH1 0x24 DUP3 ADD MSTORE PUSH32 0x596F75206861766520616C72656164792077697468647261776E20796F757220 PUSH1 0x44 DUP3 ADD MSTORE PUSH15 0x32B73A34BA3632B2103A37B5B2B717 PUSH1 0x89 SHL PUSH1 0x64 DUP3 ADD MSTORE PUSH1 0x84 ADD PUSH2 0x1D1 JUMP JUMPDEST PUSH2 0x30D CALLER DUP6 DUP6 DUP1 DUP1 PUSH1 0x1F ADD PUSH1 0x20 DUP1 SWAP2 DIV MUL PUSH1 0x20 ADD PUSH1 0x40 MLOAD SWAP1 DUP2 ADD PUSH1 0x40 MSTORE DUP1 SWAP4 SWAP3 SWAP2 SWAP1 DUP2 DUP2 MSTORE PUSH1 0x20 ADD DUP4 DUP4 DUP1 DUP3 DUP5 CALLDATACOPY PUSH1 0x0 SWAP3 ADD SWAP2 SWAP1 SWAP2 MSTORE POP POP PUSH1 0x40 DUP1 MLOAD PUSH1 0x20 DUP1 DUP10 MUL DUP3 DUP2 ADD DUP3 ADD SWAP1 SWAP4 MSTORE DUP9 DUP3 MSTORE SWAP1 SWAP4 POP DUP9 SWAP3 POP DUP8 SWAP2 DUP3 SWAP2 DUP6 ADD SWAP1 DUP5 SWAP1 DUP1 DUP3 DUP5 CALLDATACOPY PUSH1 0x0 SWAP3 ADD SWAP2 SWAP1 SWAP2 MSTORE POP PUSH2 0x4B0 SWAP3 POP POP POP JUMP JUMPDEST PUSH2 0x359 JUMPI PUSH1 0x40 MLOAD PUSH3 0x461BCD PUSH1 0xE5 SHL DUP2 MSTORE PUSH1 0x20 PUSH1 0x4 DUP3 ADD DUP2 SWAP1 MSTORE PUSH1 0x24 DUP3 ADD MSTORE PUSH32 0x5468652070726F6F6620636F756C64206E6F742062652076657269666965642E PUSH1 0x44 DUP3 ADD MSTORE PUSH1 0x64 ADD PUSH2 0x1D1 JUMP JUMPDEST PUSH1 0x40 MLOAD PUSH4 0xD0DEF521 PUSH1 0xE0 SHL DUP2 MSTORE PUSH1 0x0 SWAP1 PUSH1 0x1 PUSH1 0x1 PUSH1 0xA0 SHL SUB PUSH32 0x0 AND SWAP1 PUSH4 0xD0DEF521 SWAP1 PUSH2 0x3AC SWAP1 CALLER SWAP1 DUP10 SWAP1 DUP10 SWAP1 PUSH1 0x4 ADD PUSH2 0x97D JUMP JUMPDEST PUSH1 0x20 PUSH1 0x40 MLOAD DUP1 DUP4 SUB DUP2 PUSH1 0x0 DUP8 DUP1 EXTCODESIZE ISZERO DUP1 ISZERO PUSH2 0x3C6 JUMPI PUSH1 0x0 DUP1 REVERT JUMPDEST POP GAS CALL ISZERO DUP1 ISZERO PUSH2 0x3DA JUMPI RETURNDATASIZE PUSH1 0x0 DUP1 RETURNDATACOPY RETURNDATASIZE PUSH1 0x0 REVERT JUMPDEST POP POP POP POP PUSH1 0x40 MLOAD RETURNDATASIZE PUSH1 0x1F NOT PUSH1 0x1F DUP3 ADD AND DUP3 ADD DUP1 PUSH1 0x40 MSTORE POP DUP2 ADD SWAP1 PUSH2 0x3FE SWAP2 SWAP1 PUSH2 0x8E3 JUMP JUMPDEST CALLER PUSH1 0x0 DUP2 DUP2 MSTORE PUSH1 0x2 PUSH1 0x20 MSTORE PUSH1 0x40 SWAP1 DUP2 SWAP1 KECCAK256 DUP1 SLOAD PUSH1 0xFF NOT AND PUSH1 0x1 OR SWAP1 SSTORE MLOAD SWAP2 SWAP3 POP PUSH32 0xAAF4F52F2D9453D1BD23CD1B1CD2388A7DD01F328CFE74EF0AD765FFFD89D3F8 SWAP2 PUSH2 0x450 SWAP2 SWAP1 DUP5 SWAP1 DUP10 SWAP1 DUP10 SWAP1 PUSH2 0x9A2 JUMP JUMPDEST PUSH1 0x40 MLOAD DUP1 SWAP2 SUB SWAP1 LOG1 POP POP POP POP POP JUMP JUMPDEST PUSH1 0x0 SLOAD PUSH1 0x1 PUSH1 0x1 PUSH1 0xA0 SHL SUB AND CALLER EQ PUSH2 0x489 JUMPI PUSH1 0x40 MLOAD PUSH3 0x461BCD PUSH1 0xE5 SHL DUP2 MSTORE PUSH1 0x4 ADD PUSH2 0x1D1 SWAP1 PUSH2 0x9D4 JUMP JUMPDEST PUSH1 0x1 SSTORE JUMP JUMPDEST PUSH1 0x1 PUSH1 0x1 PUSH1 0xA0 SHL SUB DUP2 AND PUSH1 0x0 SWAP1 DUP2 MSTORE PUSH1 0x2 PUSH1 0x20 MSTORE PUSH1 0x40 SWAP1 KECCAK256 SLOAD PUSH1 0xFF AND JUMPDEST SWAP2 SWAP1 POP JUMP JUMPDEST PUSH1 0x0 DUP1 DUP5 DUP5 PUSH1 0x40 MLOAD PUSH1 0x20 ADD PUSH2 0x4C6 SWAP3 SWAP2 SWAP1 PUSH2 0x925 JUMP JUMPDEST PUSH1 0x40 MLOAD PUSH1 0x20 DUP2 DUP4 SUB SUB DUP2 MSTORE SWAP1 PUSH1 0x40 MSTORE DUP1 MLOAD SWAP1 PUSH1 0x20 ADD KECCAK256 SWAP1 POP PUSH2 0x4E8 DUP2 DUP5 PUSH2 0x5DB JUMP JUMPDEST SWAP6 SWAP5 POP POP POP POP POP JUMP JUMPDEST PUSH1 0x0 SLOAD PUSH1 0x1 PUSH1 0x1 PUSH1 0xA0 SHL SUB AND CALLER EQ PUSH2 0x51B JUMPI PUSH1 0x40 MLOAD PUSH3 0x461BCD PUSH1 0xE5 SHL DUP2 MSTORE PUSH1 0x4 ADD PUSH2 0x1D1 SWAP1 PUSH2 0x9D4 JUMP JUMPDEST PUSH1 0x1 PUSH1 0x1 PUSH1 0xA0 SHL SUB DUP2 AND PUSH2 0x580 JUMPI PUSH1 0x40 MLOAD PUSH3 0x461BCD PUSH1 0xE5 SHL DUP2 MSTORE PUSH1 0x20 PUSH1 0x4 DUP3 ADD MSTORE PUSH1 0x26 PUSH1 0x24 DUP3 ADD MSTORE PUSH32 0x4F776E61626C653A206E6577206F776E657220697320746865207A65726F2061 PUSH1 0x44 DUP3 ADD MSTORE PUSH6 0x646472657373 PUSH1 0xD0 SHL PUSH1 0x64 DUP3 ADD MSTORE PUSH1 0x84 ADD PUSH2 0x1D1 JUMP JUMPDEST PUSH1 0x0 DUP1 SLOAD PUSH1 0x40 MLOAD PUSH1 0x1 PUSH1 0x1 PUSH1 0xA0 SHL SUB DUP1 DUP6 AND SWAP4 SWAP3 AND SWAP2 PUSH32 0x8BE0079C531659141344CD1FD0A4F28419497F9722A3DAAFE3B4186F6B6457E0 SWAP2 LOG3 PUSH1 0x0 DUP1 SLOAD PUSH1 0x1 PUSH1 0x1 PUSH1 0xA0 SHL SUB NOT AND PUSH1 0x1 PUSH1 0x1 PUSH1 0xA0 SHL SUB SWAP3 SWAP1 SWAP3 AND SWAP2 SWAP1 SWAP2 OR SWAP1 SSTORE JUMP JUMPDEST PUSH1 0x0 DUP3 DUP2 JUMPDEST DUP4 MLOAD DUP2 LT ISZERO PUSH2 0x62E JUMPI PUSH2 0x61A DUP3 DUP6 DUP4 DUP2 MLOAD DUP2 LT PUSH2 0x60D JUMPI PUSH4 0x4E487B71 PUSH1 0xE0 SHL PUSH1 0x0 MSTORE PUSH1 0x32 PUSH1 0x4 MSTORE PUSH1 0x24 PUSH1 0x0 REVERT JUMPDEST PUSH1 0x20 MUL PUSH1 0x20 ADD ADD MLOAD PUSH2 0x63C JUMP JUMPDEST SWAP2 POP PUSH2 0x627 PUSH1 0x1 DUP3 PUSH2 0xA3A JUMP JUMPDEST SWAP1 POP PUSH2 0x5E0 JUMP JUMPDEST POP PUSH1 0x1 SLOAD EQ SWAP1 POP JUMPDEST SWAP3 SWAP2 POP POP JUMP JUMPDEST PUSH1 0x0 DUP2 DUP4 LT ISZERO PUSH2 0x678 JUMPI PUSH1 0x40 DUP1 MLOAD PUSH1 0x20 DUP2 ADD DUP6 SWAP1 MSTORE SWAP1 DUP2 ADD DUP4 SWAP1 MSTORE PUSH1 0x60 ADD JUMPDEST PUSH1 0x40 MLOAD PUSH1 0x20 DUP2 DUP4 SUB SUB DUP2 MSTORE SWAP1 PUSH1 0x40 MSTORE DUP1 MLOAD SWAP1 PUSH1 0x20 ADD KECCAK256 SWAP1 POP PUSH2 0x636 JUMP JUMPDEST PUSH1 0x40 DUP1 MLOAD PUSH1 0x20 DUP2 ADD DUP5 SWAP1 MSTORE SWAP1 DUP2 ADD DUP5 SWAP1 MSTORE PUSH1 0x60 ADD PUSH2 0x65B JUMP JUMPDEST DUP1 CALLDATALOAD PUSH1 0x1 PUSH1 0x1 PUSH1 0xA0 SHL SUB DUP2 AND DUP2 EQ PUSH2 0x4AB JUMPI PUSH1 0x0 DUP1 REVERT JUMPDEST PUSH1 0x0 DUP3 PUSH1 0x1F DUP4 ADD SLT PUSH2 0x6B8 JUMPI DUP1 DUP2 REVERT JUMPDEST DUP2 CALLDATALOAD PUSH1 0x20 PUSH8 0xFFFFFFFFFFFFFFFF DUP3 GT ISZERO PUSH2 0x6D4 JUMPI PUSH2 0x6D4 PUSH2 0xA5E JUMP JUMPDEST DUP2 PUSH1 0x5 SHL PUSH2 0x6E3 DUP3 DUP3 ADD PUSH2 0xA09 JUMP JUMPDEST DUP4 DUP2 MSTORE DUP3 DUP2 ADD SWAP1 DUP7 DUP5 ADD DUP4 DUP9 ADD DUP6 ADD DUP10 LT ISZERO PUSH2 0x6FD JUMPI DUP7 DUP8 REVERT JUMPDEST DUP7 SWAP4 POP JUMPDEST DUP6 DUP5 LT ISZERO PUSH2 0x71F JUMPI DUP1 CALLDATALOAD DUP4 MSTORE PUSH1 0x1 SWAP4 SWAP1 SWAP4 ADD SWAP3 SWAP2 DUP5 ADD SWAP2 DUP5 ADD PUSH2 0x701 JUMP JUMPDEST POP SWAP8 SWAP7 POP POP POP POP POP POP POP JUMP JUMPDEST PUSH1 0x0 PUSH1 0x20 DUP3 DUP5 SUB SLT ISZERO PUSH2 0x73C JUMPI DUP1 DUP2 REVERT JUMPDEST PUSH2 0x745 DUP3 PUSH2 0x691 JUMP JUMPDEST SWAP4 SWAP3 POP POP POP JUMP JUMPDEST PUSH1 0x0 DUP1 PUSH1 0x0 PUSH1 0x60 DUP5 DUP7 SUB SLT ISZERO PUSH2 0x760 JUMPI DUP2 DUP3 REVERT JUMPDEST PUSH2 0x769 DUP5 PUSH2 0x691 JUMP JUMPDEST SWAP3 POP PUSH1 0x20 DUP1 DUP6 ADD CALLDATALOAD PUSH8 0xFFFFFFFFFFFFFFFF DUP1 DUP3 GT ISZERO PUSH2 0x786 JUMPI DUP5 DUP6 REVERT JUMPDEST DUP2 DUP8 ADD SWAP2 POP DUP8 PUSH1 0x1F DUP4 ADD SLT PUSH2 0x799 JUMPI DUP5 DUP6 REVERT JUMPDEST DUP2 CALLDATALOAD DUP2 DUP2 GT ISZERO PUSH2 0x7AB JUMPI PUSH2 0x7AB PUSH2 0xA5E JUMP JUMPDEST PUSH2 0x7BD PUSH1 0x1F DUP3 ADD PUSH1 0x1F NOT AND DUP6 ADD PUSH2 0xA09 JUMP JUMPDEST DUP2 DUP2 MSTORE DUP10 DUP6 DUP4 DUP7 ADD ADD GT ISZERO PUSH2 0x7D0 JUMPI DUP7 DUP8 REVERT JUMPDEST DUP2 DUP6 DUP6 ADD DUP7 DUP4 ADD CALLDATACOPY DUP7 DUP6 DUP4 DUP4 ADD ADD MSTORE DUP1 SWAP7 POP POP POP PUSH1 0x40 DUP8 ADD CALLDATALOAD SWAP3 POP DUP1 DUP4 GT ISZERO PUSH2 0x7F7 JUMPI DUP4 DUP5 REVERT JUMPDEST POP POP PUSH2 0x805 DUP7 DUP3 DUP8 ADD PUSH2 0x6A8 JUMP JUMPDEST SWAP2 POP POP SWAP3 POP SWAP3 POP SWAP3 JUMP JUMPDEST PUSH1 0x0 PUSH1 0x20 DUP3 DUP5 SUB SLT ISZERO PUSH2 0x820 JUMPI DUP1 DUP2 REVERT JUMPDEST POP CALLDATALOAD SWAP2 SWAP1 POP JUMP JUMPDEST PUSH1 0x0 DUP1 PUSH1 0x0 DUP1 PUSH1 0x40 DUP6 DUP8 SUB SLT ISZERO PUSH2 0x83C JUMPI DUP1 DUP2 REVERT JUMPDEST DUP5 CALLDATALOAD PUSH8 0xFFFFFFFFFFFFFFFF DUP1 DUP3 GT ISZERO PUSH2 0x853 JUMPI DUP3 DUP4 REVERT JUMPDEST DUP2 DUP8 ADD SWAP2 POP DUP8 PUSH1 0x1F DUP4 ADD SLT PUSH2 0x866 JUMPI DUP3 DUP4 REVERT JUMPDEST DUP2 CALLDATALOAD DUP2 DUP2 GT ISZERO PUSH2 0x874 JUMPI DUP4 DUP5 REVERT JUMPDEST DUP9 PUSH1 0x20 DUP3 DUP6 ADD ADD GT ISZERO PUSH2 0x885 JUMPI DUP4 DUP5 REVERT JUMPDEST PUSH1 0x20 SWAP3 DUP4 ADD SWAP7 POP SWAP5 POP SWAP1 DUP7 ADD CALLDATALOAD SWAP1 DUP1 DUP3 GT ISZERO PUSH2 0x89F JUMPI DUP3 DUP4 REVERT JUMPDEST DUP2 DUP8 ADD SWAP2 POP DUP8 PUSH1 0x1F DUP4 ADD SLT PUSH2 0x8B2 JUMPI DUP3 DUP4 REVERT JUMPDEST DUP2 CALLDATALOAD DUP2 DUP2 GT ISZERO PUSH2 0x8C0 JUMPI DUP4 DUP5 REVERT JUMPDEST DUP9 PUSH1 0x20 DUP3 PUSH1 0x5 SHL DUP6 ADD ADD GT ISZERO PUSH2 0x8D4 JUMPI DUP4 DUP5 REVERT JUMPDEST SWAP6 SWAP9 SWAP5 SWAP8 POP POP PUSH1 0x20 ADD SWAP5 POP POP POP JUMP JUMPDEST PUSH1 0x0 PUSH1 0x20 DUP3 DUP5 SUB SLT ISZERO PUSH2 0x8F4 JUMPI DUP1 DUP2 REVERT JUMPDEST POP MLOAD SWAP2 SWAP1 POP JUMP JUMPDEST PUSH1 0x0 DUP3 DUP5 MSTORE DUP3 DUP3 PUSH1 0x20 DUP7 ADD CALLDATACOPY DUP1 PUSH1 0x20 DUP5 DUP7 ADD ADD MSTORE PUSH1 0x20 PUSH1 0x1F NOT PUSH1 0x1F DUP6 ADD AND DUP6 ADD ADD SWAP1 POP SWAP4 SWAP3 POP POP POP JUMP JUMPDEST PUSH1 0x0 PUSH12 0xFFFFFFFFFFFFFFFFFFFFFFFF NOT DUP5 PUSH1 0x60 SHL AND DUP3 MSTORE DUP3 MLOAD DUP2 JUMPDEST DUP2 DUP2 LT ISZERO PUSH2 0x95D JUMPI PUSH1 0x20 DUP2 DUP7 ADD DUP2 ADD MLOAD PUSH1 0x14 DUP7 DUP5 ADD ADD MSTORE ADD PUSH2 0x940 JUMP JUMPDEST DUP2 DUP2 GT ISZERO PUSH2 0x96E JUMPI DUP3 PUSH1 0x14 DUP4 DUP7 ADD ADD MSTORE JUMPDEST POP SWAP2 SWAP1 SWAP2 ADD PUSH1 0x14 ADD SWAP4 SWAP3 POP POP POP JUMP JUMPDEST PUSH1 0x1 PUSH1 0x1 PUSH1 0xA0 SHL SUB DUP5 AND DUP2 MSTORE PUSH1 0x40 PUSH1 0x20 DUP3 ADD DUP2 SWAP1 MSTORE PUSH1 0x0 SWAP1 PUSH2 0x4E8 SWAP1 DUP4 ADD DUP5 DUP7 PUSH2 0x8FB JUMP JUMPDEST PUSH1 0x0 PUSH1 0x1 DUP1 PUSH1 0xA0 SHL SUB DUP7 AND DUP3 MSTORE DUP5 PUSH1 0x20 DUP4 ADD MSTORE PUSH1 0x60 PUSH1 0x40 DUP4 ADD MSTORE PUSH2 0x9CA PUSH1 0x60 DUP4 ADD DUP5 DUP7 PUSH2 0x8FB JUMP JUMPDEST SWAP7 SWAP6 POP POP POP POP POP POP JUMP JUMPDEST PUSH1 0x20 DUP1 DUP3 MSTORE DUP2 DUP2 ADD MSTORE PUSH32 0x4F776E61626C653A2063616C6C6572206973206E6F7420746865206F776E6572 PUSH1 0x40 DUP3 ADD MSTORE PUSH1 0x60 ADD SWAP1 JUMP JUMPDEST PUSH1 0x40 MLOAD PUSH1 0x1F DUP3 ADD PUSH1 0x1F NOT AND DUP2 ADD PUSH8 0xFFFFFFFFFFFFFFFF DUP2 GT DUP3 DUP3 LT OR ISZERO PUSH2 0xA32 JUMPI PUSH2 0xA32 PUSH2 0xA5E JUMP JUMPDEST PUSH1 0x40 MSTORE SWAP2 SWAP1 POP JUMP JUMPDEST PUSH1 0x0 DUP3 NOT DUP3 GT ISZERO PUSH2 0xA59 JUMPI PUSH4 0x4E487B71 PUSH1 0xE0 SHL DUP2 MSTORE PUSH1 0x11 PUSH1 0x4 MSTORE PUSH1 0x24 DUP2 REVERT JUMPDEST POP ADD SWAP1 JUMP JUMPDEST PUSH4 0x4E487B71 PUSH1 0xE0 SHL PUSH1 0x0 MSTORE PUSH1 0x41 PUSH1 0x4 MSTORE PUSH1 0x24 PUSH1 0x0 REVERT INVALID LOG2 PUSH5 0x6970667358 0x22 SLT KECCAK256 0x5E 0xCE INVALID 0x1E PUSH18 0xB2A11C536433E1B58D963A12614129AE225A 0xCD SWAP14 0xE3 0x4C SMOD PUSH15 0x26685664736F6C6343000803003300 ",
  "sha1": "2e3d0b87ff86264f10f2de9bb068c6b65d0c5db5",
  "source": "/* Please read and review the Terms and Conditions governing this\n   Merkle Drop by visiting the Trustlines Foundation homepage. Any\n   interaction with this smart contract, including but not limited to\n   claiming Trustlines Network Tokens, is subject to these Terms and\n   Conditions.\n */\n\npragma solidity 0.8.3;\n\nimport \"./NFT.sol\";\nimport \"@openzeppelin/contracts/utils/math/SafeMath.sol\";\nimport \"@openzeppelin/contracts/access/Ownable.sol\";\nimport \"./IMerkleDistributor.sol\";\n\ncontract MerkleDrop is IMerkleDistributor,Ownable {\n    address public immutable override token;\n    bytes32 public override merkleRoot;\n\n    mapping(address => bool) public withdrawn;\n\n    constructor(address token_, bytes32 merkleRoot_) public {\n        token = token_;\n        merkleRoot = merkleRoot_;\n    }\n\n    function setMerkleRoot(bytes32 merkleRoot_) public onlyOwner {\n        merkleRoot = merkleRoot_;\n    }\n\n    function isClaimed(address recipient) public view override returns (bool) {\n        return withdrawn[recipient];\n    }\n\n    function claim(string calldata tokenURI, bytes32[] calldata proof)\n        external\n        override\n    {\n        require(\n            !withdrawn[msg.sender],\n            \"You have already withdrawn your entitled token.\"\n        );\n        require(\n            verifyEntitled(msg.sender, tokenURI, proof),\n            \"The proof could not be verified.\"\n        );\n\n        uint256 tokenId = MENFT(token).mint(msg.sender, tokenURI);\n        withdrawn[msg.sender] = true;\n        emit Claimed(msg.sender, tokenId, tokenURI);\n    }\n\n    function verifyEntitled(\n        address recipient,\n        string memory tokenURI,\n        bytes32[] memory proof\n    ) public view returns (bool) {\n        // We need to pack the 20 bytes address to the 32 bytes value\n        // to match with the proof made with the python merkle-drop package\n        bytes32 leaf = keccak256(abi.encodePacked(recipient, tokenURI));\n        return verifyProof(leaf, proof);\n    }\n\n    function verifyProof(bytes32 leaf, bytes32[] memory proof)\n        internal\n        view\n        returns (bool)\n    {\n        bytes32 currentHash = leaf;\n\n        for (uint256 i = 0; i < proof.length; i += 1) {\n            currentHash = parentHash(currentHash, proof[i]);\n        }\n\n        return currentHash == merkleRoot;\n    }\n\n    function parentHash(bytes32 a, bytes32 b) internal pure returns (bytes32) {\n        if (a < b) {\n            return keccak256(abi.encode(a, b));\n        } else {\n            return keccak256(abi.encode(b, a));\n        }\n    }\n}\n",
  "sourcePath": "contracts/MerkleDrop.sol",
  "type": "contract"
}