{
  "abi": [
    {
      "inputs": [
        {
          "internalType": "address",
          "name": "token_",
          "type": "address"
        },
        {
          "internalType": "bytes32",
          "name": "merkleRoot_",
          "type": "bytes32"
        }
      ],
      "stateMutability": "nonpayable",
      "type": "constructor"
    },
    {
      "anonymous": false,
      "inputs": [
        {
          "indexed": false,
          "internalType": "address",
          "name": "account",
          "type": "address"
        },
        {
          "indexed": false,
          "internalType": "uint256",
          "name": "tokenId",
          "type": "uint256"
        },
        {
          "indexed": false,
          "internalType": "string",
          "name": "tokenURI",
          "type": "string"
        }
      ],
      "name": "Claimed",
      "type": "event"
    },
    {
      "anonymous": false,
      "inputs": [
        {
          "indexed": true,
          "internalType": "address",
          "name": "previousOwner",
          "type": "address"
        },
        {
          "indexed": true,
          "internalType": "address",
          "name": "newOwner",
          "type": "address"
        }
      ],
      "name": "OwnershipTransferred",
      "type": "event"
    },
    {
      "inputs": [
        {
          "internalType": "string",
          "name": "tokenURI",
          "type": "string"
        },
        {
          "internalType": "bytes32[]",
          "name": "proof",
          "type": "bytes32[]"
        }
      ],
      "name": "claim",
      "outputs": [],
      "stateMutability": "nonpayable",
      "type": "function"
    },
    {
      "inputs": [
        {
          "internalType": "address",
          "name": "recipient",
          "type": "address"
        },
        {
          "internalType": "string",
          "name": "tokenURI",
          "type": "string"
        }
      ],
      "name": "isClaimed",
      "outputs": [
        {
          "internalType": "bool",
          "name": "",
          "type": "bool"
        }
      ],
      "stateMutability": "view",
      "type": "function"
    },
    {
      "inputs": [],
      "name": "merkleRoot",
      "outputs": [
        {
          "internalType": "bytes32",
          "name": "",
          "type": "bytes32"
        }
      ],
      "stateMutability": "view",
      "type": "function"
    },
    {
      "inputs": [],
      "name": "owner",
      "outputs": [
        {
          "internalType": "address",
          "name": "",
          "type": "address"
        }
      ],
      "stateMutability": "view",
      "type": "function"
    },
    {
      "inputs": [],
      "name": "renounceOwnership",
      "outputs": [],
      "stateMutability": "nonpayable",
      "type": "function"
    },
    {
      "inputs": [
        {
          "internalType": "bytes32",
          "name": "merkleRoot_",
          "type": "bytes32"
        }
      ],
      "name": "setMerkleRoot",
      "outputs": [],
      "stateMutability": "nonpayable",
      "type": "function"
    },
    {
      "inputs": [],
      "name": "token",
      "outputs": [
        {
          "internalType": "address",
          "name": "",
          "type": "address"
        }
      ],
      "stateMutability": "view",
      "type": "function"
    },
    {
      "inputs": [
        {
          "internalType": "address",
          "name": "newOwner",
          "type": "address"
        }
      ],
      "name": "transferOwnership",
      "outputs": [],
      "stateMutability": "nonpayable",
      "type": "function"
    },
    {
      "inputs": [
        {
          "internalType": "address",
          "name": "recipient",
          "type": "address"
        },
        {
          "internalType": "string",
          "name": "tokenURI",
          "type": "string"
        },
        {
          "internalType": "bytes32[]",
          "name": "proof",
          "type": "bytes32[]"
        }
      ],
      "name": "verifyEntitled",
      "outputs": [
        {
          "internalType": "bool",
          "name": "",
          "type": "bool"
        }
      ],
      "stateMutability": "view",
      "type": "function"
    },
    {
      "inputs": [
        {
          "internalType": "address",
          "name": "",
          "type": "address"
        },
        {
          "internalType": "string",
          "name": "",
          "type": "string"
        }
      ],
      "name": "withdrawn",
      "outputs": [
        {
          "internalType": "bool",
          "name": "",
          "type": "bool"
        }
      ],
      "stateMutability": "view",
      "type": "function"
    }
  ],
  "bytecode": "60a060405234801561001057600080fd5b50604051610cff380380610cff83398101604081905261002f9161008b565b600080546001600160a01b031916339081178255604051909182917f8be0079c531659141344cd1fd0a4f28419497f9722a3daafe3b4186f6b6457e0908290a35060609190911b6001600160601b0319166080526001556100c3565b6000806040838503121561009d578182fd5b82516001600160a01b03811681146100b3578283fd5b6020939093015192949293505050565b60805160601c610c176100e8600039600081816101a101526103fe0152610c176000f3fe608060405234801561001057600080fd5b506004361061009e5760003560e01c80638da5cb5b116100665780638da5cb5b14610112578063ab7af54c14610137578063b3858be41461014a578063f2fde38b14610189578063fc0c546a1461019c5761009e565b80632eb4a7ab146100a357806356b2a63a146100bf578063715018a6146100e257806372532d07146100ec5780637cb64759146100ff575b600080fd5b6100ac60015481565b6040519081526020015b60405180910390f35b6100d26100cd3660046107e7565b6101c3565b60405190151581526020016100b6565b6100ea610205565b005b6100ea6100fa366004610929565b610282565b6100ea61010d366004610911565b610512565b6000546001600160a01b03165b6040516001600160a01b0390911681526020016100b6565b6100d2610145366004610833565b610541565b6100d26101583660046107e7565b6002602090815260009283526040909220815180830184018051928152908401929093019190912091525460ff1681565b6100ea6101973660046107c6565b6105a1565b61011f7f000000000000000000000000000000000000000000000000000000000000000081565b6001600160a01b03821660009081526002602052604080822090516101e9908490610a9e565b9081526040519081900360200190205460ff1690505b92915050565b6000546001600160a01b031633146102385760405162461bcd60e51b815260040161022f90610b11565b60405180910390fd5b600080546040516001600160a01b03909116907f8be0079c531659141344cd1fd0a4f28419497f9722a3daafe3b4186f6b6457e0908390a3600080546001600160a01b0319169055565b6102c23385858080601f0160208091040260200160405190810160405280939291908181526020018383808284376000920191909152506101c392505050565b156103275760405162461bcd60e51b815260206004820152602f60248201527f596f75206861766520616c72656164792077697468647261776e20796f75722060448201526e32b73a34ba3632b2103a37b5b2b71760891b606482015260840161022f565b6103983385858080601f0160208091040260200160405190810160405280939291908181526020018383808284376000920191909152505060408051602080890282810182019093528882529093508892508791829185019084908082843760009201919091525061054192505050565b6103e45760405162461bcd60e51b815260206004820181905260248201527f5468652070726f6f6620636f756c64206e6f742062652076657269666965642e604482015260640161022f565b60405163d0def52160e01b81526000906001600160a01b037f0000000000000000000000000000000000000000000000000000000000000000169063d0def5219061043790339089908990600401610aba565b602060405180830381600087803b15801561045157600080fd5b505af1158015610465573d6000803e3d6000fd5b505050506040513d601f19601f8201168201806040525081019061048991906109e5565b336000908152600260205260409081902090519192506001916104af9088908890610a8e565b908152604051908190036020018120805492151560ff19909316929092179091557faaf4f52f2d9453d1bd23cd1b1cd2388a7dd01f328cfe74ef0ad765fffd89d3f890610503903390849089908990610adf565b60405180910390a15050505050565b6000546001600160a01b0316331461053c5760405162461bcd60e51b815260040161022f90610b11565b600155565b6000808484604051602001610557929190610a27565b60408051601f1981840301815290829052610576918690602001610a5f565b604051602081830303815290604052805190602001209050610598818461068b565b95945050505050565b6000546001600160a01b031633146105cb5760405162461bcd60e51b815260040161022f90610b11565b6001600160a01b0381166106305760405162461bcd60e51b815260206004820152602660248201527f4f776e61626c653a206e6577206f776e657220697320746865207a65726f206160448201526564647265737360d01b606482015260840161022f565b600080546040516001600160a01b03808516939216917f8be0079c531659141344cd1fd0a4f28419497f9722a3daafe3b4186f6b6457e091a3600080546001600160a01b0319166001600160a01b0392909216919091179055565b600082815b83518110156106de576106ca828583815181106106bd57634e487b7160e01b600052603260045260246000fd5b60200260200101516106ea565b91506106d7600182610b77565b9050610690565b50600154149392505050565b6000818310156107265760408051602081018590529081018390526060015b6040516020818303038152906040528051906020012090506101ff565b6040805160208101849052908101849052606001610709565b80356001600160a01b038116811461075657600080fd5b919050565b600082601f83011261076b578081fd5b813567ffffffffffffffff81111561078557610785610bcb565b610798601f8201601f1916602001610b46565b8181528460208386010111156107ac578283fd5b816020850160208301379081016020019190915292915050565b6000602082840312156107d7578081fd5b6107e08261073f565b9392505050565b600080604083850312156107f9578081fd5b6108028361073f565b9150602083013567ffffffffffffffff81111561081d578182fd5b6108298582860161075b565b9150509250929050565b600080600060608486031215610847578081fd5b6108508461073f565b925060208085013567ffffffffffffffff8082111561086d578384fd5b6108798883890161075b565b9450604087013591508082111561088e578384fd5b818701915087601f8301126108a1578384fd5b8135818111156108b3576108b3610bcb565b8060051b91506108c4848301610b46565b8181528481019084860184860187018c10156108de578788fd5b8795505b838610156109005780358352600195909501949186019186016108e2565b508096505050505050509250925092565b600060208284031215610922578081fd5b5035919050565b6000806000806040858703121561093e578081fd5b843567ffffffffffffffff80821115610955578283fd5b818701915087601f830112610968578283fd5b813581811115610976578384fd5b886020828501011115610987578384fd5b6020928301965094509086013590808211156109a1578283fd5b818701915087601f8301126109b4578283fd5b8135818111156109c2578384fd5b8860208260051b85010111156109d6578384fd5b95989497505060200194505050565b6000602082840312156109f6578081fd5b5051919050565b60008284528282602086013780602084860101526020601f19601f85011685010190509392505050565b60006bffffffffffffffffffffffff198460601b1682528251610a51816014850160208701610b9b565b919091016014019392505050565b60008351610a71818460208801610b9b565b835190830190610a85818360208801610b9b565b01949350505050565b6000828483379101908152919050565b60008251610ab0818460208701610b9b565b9190910192915050565b6001600160a01b038416815260406020820181905260009061059890830184866109fd565b600060018060a01b038616825284602083015260606040830152610b076060830184866109fd565b9695505050505050565b6020808252818101527f4f776e61626c653a2063616c6c6572206973206e6f7420746865206f776e6572604082015260600190565b604051601f8201601f1916810167ffffffffffffffff81118282101715610b6f57610b6f610bcb565b604052919050565b60008219821115610b9657634e487b7160e01b81526011600452602481fd5b500190565b60005b83811015610bb6578181015183820152602001610b9e565b83811115610bc5576000848401525b50505050565b634e487b7160e01b600052604160045260246000fdfea2646970667358221220df1506c33bfd885b01b4de3ed913b91b3c32aa6f77755e26c5ef810963e2554464736f6c63430008030033",
  "bytecodeSha1": "6e399d3af4cd68afec7120b75250f3388f298704",
  "compiler": {
    "evm_version": "istanbul",
    "optimizer": {
      "enabled": true,
      "runs": 200
    },
    "version": "0.8.3+commit.8d00100c"
  },
  "contractName": "MerkleDrop",
  "language": "Solidity",
  "natspec": {
    "kind": "dev",
    "methods": {
      "owner()": {
        "details": "Returns the address of the current owner."
      },
      "renounceOwnership()": {
        "details": "Leaves the contract without owner. It will not be possible to call `onlyOwner` functions anymore. Can only be called by the current owner. NOTE: Renouncing ownership will leave the contract without an owner, thereby removing any functionality that is only available to the owner."
      },
      "transferOwnership(address)": {
        "details": "Transfers ownership of the contract to a new account (`newOwner`). Can only be called by the current owner."
      }
    },
    "version": 1
  },
  "opcodes": "PUSH1 0x80 PUSH1 0x40 MSTORE CALLVALUE DUP1 ISZERO PUSH2 0x10 JUMPI PUSH1 0x0 DUP1 REVERT JUMPDEST POP PUSH1 0x4 CALLDATASIZE LT PUSH2 0x9E JUMPI PUSH1 0x0 CALLDATALOAD PUSH1 0xE0 SHR DUP1 PUSH4 0x8DA5CB5B GT PUSH2 0x66 JUMPI DUP1 PUSH4 0x8DA5CB5B EQ PUSH2 0x112 JUMPI DUP1 PUSH4 0xAB7AF54C EQ PUSH2 0x137 JUMPI DUP1 PUSH4 0xB3858BE4 EQ PUSH2 0x14A JUMPI DUP1 PUSH4 0xF2FDE38B EQ PUSH2 0x189 JUMPI DUP1 PUSH4 0xFC0C546A EQ PUSH2 0x19C JUMPI PUSH2 0x9E JUMP JUMPDEST DUP1 PUSH4 0x2EB4A7AB EQ PUSH2 0xA3 JUMPI DUP1 PUSH4 0x56B2A63A EQ PUSH2 0xBF JUMPI DUP1 PUSH4 0x715018A6 EQ PUSH2 0xE2 JUMPI DUP1 PUSH4 0x72532D07 EQ PUSH2 0xEC JUMPI DUP1 PUSH4 0x7CB64759 EQ PUSH2 0xFF JUMPI JUMPDEST PUSH1 0x0 DUP1 REVERT JUMPDEST PUSH2 0xAC PUSH1 0x1 SLOAD DUP2 JUMP JUMPDEST PUSH1 0x40 MLOAD SWAP1 DUP2 MSTORE PUSH1 0x20 ADD JUMPDEST PUSH1 0x40 MLOAD DUP1 SWAP2 SUB SWAP1 RETURN JUMPDEST PUSH2 0xD2 PUSH2 0xCD CALLDATASIZE PUSH1 0x4 PUSH2 0x7E7 JUMP JUMPDEST PUSH2 0x1C3 JUMP JUMPDEST PUSH1 0x40 MLOAD SWAP1 ISZERO ISZERO DUP2 MSTORE PUSH1 0x20 ADD PUSH2 0xB6 JUMP JUMPDEST PUSH2 0xEA PUSH2 0x205 JUMP JUMPDEST STOP JUMPDEST PUSH2 0xEA PUSH2 0xFA CALLDATASIZE PUSH1 0x4 PUSH2 0x929 JUMP JUMPDEST PUSH2 0x282 JUMP JUMPDEST PUSH2 0xEA PUSH2 0x10D CALLDATASIZE PUSH1 0x4 PUSH2 0x911 JUMP JUMPDEST PUSH2 0x512 JUMP JUMPDEST PUSH1 0x0 SLOAD PUSH1 0x1 PUSH1 0x1 PUSH1 0xA0 SHL SUB AND JUMPDEST PUSH1 0x40 MLOAD PUSH1 0x1 PUSH1 0x1 PUSH1 0xA0 SHL SUB SWAP1 SWAP2 AND DUP2 MSTORE PUSH1 0x20 ADD PUSH2 0xB6 JUMP JUMPDEST PUSH2 0xD2 PUSH2 0x145 CALLDATASIZE PUSH1 0x4 PUSH2 0x833 JUMP JUMPDEST PUSH2 0x541 JUMP JUMPDEST PUSH2 0xD2 PUSH2 0x158 CALLDATASIZE PUSH1 0x4 PUSH2 0x7E7 JUMP JUMPDEST PUSH1 0x2 PUSH1 0x20 SWAP1 DUP2 MSTORE PUSH1 0x0 SWAP3 DUP4 MSTORE PUSH1 0x40 SWAP1 SWAP3 KECCAK256 DUP2 MLOAD DUP1 DUP4 ADD DUP5 ADD DUP1 MLOAD SWAP3 DUP2 MSTORE SWAP1 DUP5 ADD SWAP3 SWAP1 SWAP4 ADD SWAP2 SWAP1 SWAP2 KECCAK256 SWAP2 MSTORE SLOAD PUSH1 0xFF AND DUP2 JUMP JUMPDEST PUSH2 0xEA PUSH2 0x197 CALLDATASIZE PUSH1 0x4 PUSH2 0x7C6 JUMP JUMPDEST PUSH2 0x5A1 JUMP JUMPDEST PUSH2 0x11F PUSH32 0x0 DUP2 JUMP JUMPDEST PUSH1 0x1 PUSH1 0x1 PUSH1 0xA0 SHL SUB DUP3 AND PUSH1 0x0 SWAP1 DUP2 MSTORE PUSH1 0x2 PUSH1 0x20 MSTORE PUSH1 0x40 DUP1 DUP3 KECCAK256 SWAP1 MLOAD PUSH2 0x1E9 SWAP1 DUP5 SWAP1 PUSH2 0xA9E JUMP JUMPDEST SWAP1 DUP2 MSTORE PUSH1 0x40 MLOAD SWAP1 DUP2 SWAP1 SUB PUSH1 0x20 ADD SWAP1 KECCAK256 SLOAD PUSH1 0xFF AND SWAP1 POP JUMPDEST SWAP3 SWAP2 POP POP JUMP JUMPDEST PUSH1 0x0 SLOAD PUSH1 0x1 PUSH1 0x1 PUSH1 0xA0 SHL SUB AND CALLER EQ PUSH2 0x238 JUMPI PUSH1 0x40 MLOAD PUSH3 0x461BCD PUSH1 0xE5 SHL DUP2 MSTORE PUSH1 0x4 ADD PUSH2 0x22F SWAP1 PUSH2 0xB11 JUMP JUMPDEST PUSH1 0x40 MLOAD DUP1 SWAP2 SUB SWAP1 REVERT JUMPDEST PUSH1 0x0 DUP1 SLOAD PUSH1 0x40 MLOAD PUSH1 0x1 PUSH1 0x1 PUSH1 0xA0 SHL SUB SWAP1 SWAP2 AND SWAP1 PUSH32 0x8BE0079C531659141344CD1FD0A4F28419497F9722A3DAAFE3B4186F6B6457E0 SWAP1 DUP4 SWAP1 LOG3 PUSH1 0x0 DUP1 SLOAD PUSH1 0x1 PUSH1 0x1 PUSH1 0xA0 SHL SUB NOT AND SWAP1 SSTORE JUMP JUMPDEST PUSH2 0x2C2 CALLER DUP6 DUP6 DUP1 DUP1 PUSH1 0x1F ADD PUSH1 0x20 DUP1 SWAP2 DIV MUL PUSH1 0x20 ADD PUSH1 0x40 MLOAD SWAP1 DUP2 ADD PUSH1 0x40 MSTORE DUP1 SWAP4 SWAP3 SWAP2 SWAP1 DUP2 DUP2 MSTORE PUSH1 0x20 ADD DUP4 DUP4 DUP1 DUP3 DUP5 CALLDATACOPY PUSH1 0x0 SWAP3 ADD SWAP2 SWAP1 SWAP2 MSTORE POP PUSH2 0x1C3 SWAP3 POP POP POP JUMP JUMPDEST ISZERO PUSH2 0x327 JUMPI PUSH1 0x40 MLOAD PUSH3 0x461BCD PUSH1 0xE5 SHL DUP2 MSTORE PUSH1 0x20 PUSH1 0x4 DUP3 ADD MSTORE PUSH1 0x2F PUSH1 0x24 DUP3 ADD MSTORE PUSH32 0x596F75206861766520616C72656164792077697468647261776E20796F757220 PUSH1 0x44 DUP3 ADD MSTORE PUSH15 0x32B73A34BA3632B2103A37B5B2B717 PUSH1 0x89 SHL PUSH1 0x64 DUP3 ADD MSTORE PUSH1 0x84 ADD PUSH2 0x22F JUMP JUMPDEST PUSH2 0x398 CALLER DUP6 DUP6 DUP1 DUP1 PUSH1 0x1F ADD PUSH1 0x20 DUP1 SWAP2 DIV MUL PUSH1 0x20 ADD PUSH1 0x40 MLOAD SWAP1 DUP2 ADD PUSH1 0x40 MSTORE DUP1 SWAP4 SWAP3 SWAP2 SWAP1 DUP2 DUP2 MSTORE PUSH1 0x20 ADD DUP4 DUP4 DUP1 DUP3 DUP5 CALLDATACOPY PUSH1 0x0 SWAP3 ADD SWAP2 SWAP1 SWAP2 MSTORE POP POP PUSH1 0x40 DUP1 MLOAD PUSH1 0x20 DUP1 DUP10 MUL DUP3 DUP2 ADD DUP3 ADD SWAP1 SWAP4 MSTORE DUP9 DUP3 MSTORE SWAP1 SWAP4 POP DUP9 SWAP3 POP DUP8 SWAP2 DUP3 SWAP2 DUP6 ADD SWAP1 DUP5 SWAP1 DUP1 DUP3 DUP5 CALLDATACOPY PUSH1 0x0 SWAP3 ADD SWAP2 SWAP1 SWAP2 MSTORE POP PUSH2 0x541 SWAP3 POP POP POP JUMP JUMPDEST PUSH2 0x3E4 JUMPI PUSH1 0x40 MLOAD PUSH3 0x461BCD PUSH1 0xE5 SHL DUP2 MSTORE PUSH1 0x20 PUSH1 0x4 DUP3 ADD DUP2 SWAP1 MSTORE PUSH1 0x24 DUP3 ADD MSTORE PUSH32 0x5468652070726F6F6620636F756C64206E6F742062652076657269666965642E PUSH1 0x44 DUP3 ADD MSTORE PUSH1 0x64 ADD PUSH2 0x22F JUMP JUMPDEST PUSH1 0x40 MLOAD PUSH4 0xD0DEF521 PUSH1 0xE0 SHL DUP2 MSTORE PUSH1 0x0 SWAP1 PUSH1 0x1 PUSH1 0x1 PUSH1 0xA0 SHL SUB PUSH32 0x0 AND SWAP1 PUSH4 0xD0DEF521 SWAP1 PUSH2 0x437 SWAP1 CALLER SWAP1 DUP10 SWAP1 DUP10 SWAP1 PUSH1 0x4 ADD PUSH2 0xABA JUMP JUMPDEST PUSH1 0x20 PUSH1 0x40 MLOAD DUP1 DUP4 SUB DUP2 PUSH1 0x0 DUP8 DUP1 EXTCODESIZE ISZERO DUP1 ISZERO PUSH2 0x451 JUMPI PUSH1 0x0 DUP1 REVERT JUMPDEST POP GAS CALL ISZERO DUP1 ISZERO PUSH2 0x465 JUMPI RETURNDATASIZE PUSH1 0x0 DUP1 RETURNDATACOPY RETURNDATASIZE PUSH1 0x0 REVERT JUMPDEST POP POP POP POP PUSH1 0x40 MLOAD RETURNDATASIZE PUSH1 0x1F NOT PUSH1 0x1F DUP3 ADD AND DUP3 ADD DUP1 PUSH1 0x40 MSTORE POP DUP2 ADD SWAP1 PUSH2 0x489 SWAP2 SWAP1 PUSH2 0x9E5 JUMP JUMPDEST CALLER PUSH1 0x0 SWAP1 DUP2 MSTORE PUSH1 0x2 PUSH1 0x20 MSTORE PUSH1 0x40 SWAP1 DUP2 SWAP1 KECCAK256 SWAP1 MLOAD SWAP2 SWAP3 POP PUSH1 0x1 SWAP2 PUSH2 0x4AF SWAP1 DUP9 SWAP1 DUP9 SWAP1 PUSH2 0xA8E JUMP JUMPDEST SWAP1 DUP2 MSTORE PUSH1 0x40 MLOAD SWAP1 DUP2 SWAP1 SUB PUSH1 0x20 ADD DUP2 KECCAK256 DUP1 SLOAD SWAP3 ISZERO ISZERO PUSH1 0xFF NOT SWAP1 SWAP4 AND SWAP3 SWAP1 SWAP3 OR SWAP1 SWAP2 SSTORE PUSH32 0xAAF4F52F2D9453D1BD23CD1B1CD2388A7DD01F328CFE74EF0AD765FFFD89D3F8 SWAP1 PUSH2 0x503 SWAP1 CALLER SWAP1 DUP5 SWAP1 DUP10 SWAP1 DUP10 SWAP1 PUSH2 0xADF JUMP JUMPDEST PUSH1 0x40 MLOAD DUP1 SWAP2 SUB SWAP1 LOG1 POP POP POP POP POP JUMP JUMPDEST PUSH1 0x0 SLOAD PUSH1 0x1 PUSH1 0x1 PUSH1 0xA0 SHL SUB AND CALLER EQ PUSH2 0x53C JUMPI PUSH1 0x40 MLOAD PUSH3 0x461BCD PUSH1 0xE5 SHL DUP2 MSTORE PUSH1 0x4 ADD PUSH2 0x22F SWAP1 PUSH2 0xB11 JUMP JUMPDEST PUSH1 0x1 SSTORE JUMP JUMPDEST PUSH1 0x0 DUP1 DUP5 DUP5 PUSH1 0x40 MLOAD PUSH1 0x20 ADD PUSH2 0x557 SWAP3 SWAP2 SWAP1 PUSH2 0xA27 JUMP JUMPDEST PUSH1 0x40 DUP1 MLOAD PUSH1 0x1F NOT DUP2 DUP5 SUB ADD DUP2 MSTORE SWAP1 DUP3 SWAP1 MSTORE PUSH2 0x576 SWAP2 DUP7 SWAP1 PUSH1 0x20 ADD PUSH2 0xA5F JUMP JUMPDEST PUSH1 0x40 MLOAD PUSH1 0x20 DUP2 DUP4 SUB SUB DUP2 MSTORE SWAP1 PUSH1 0x40 MSTORE DUP1 MLOAD SWAP1 PUSH1 0x20 ADD KECCAK256 SWAP1 POP PUSH2 0x598 DUP2 DUP5 PUSH2 0x68B JUMP JUMPDEST SWAP6 SWAP5 POP POP POP POP POP JUMP JUMPDEST PUSH1 0x0 SLOAD PUSH1 0x1 PUSH1 0x1 PUSH1 0xA0 SHL SUB AND CALLER EQ PUSH2 0x5CB JUMPI PUSH1 0x40 MLOAD PUSH3 0x461BCD PUSH1 0xE5 SHL DUP2 MSTORE PUSH1 0x4 ADD PUSH2 0x22F SWAP1 PUSH2 0xB11 JUMP JUMPDEST PUSH1 0x1 PUSH1 0x1 PUSH1 0xA0 SHL SUB DUP2 AND PUSH2 0x630 JUMPI PUSH1 0x40 MLOAD PUSH3 0x461BCD PUSH1 0xE5 SHL DUP2 MSTORE PUSH1 0x20 PUSH1 0x4 DUP3 ADD MSTORE PUSH1 0x26 PUSH1 0x24 DUP3 ADD MSTORE PUSH32 0x4F776E61626C653A206E6577206F776E657220697320746865207A65726F2061 PUSH1 0x44 DUP3 ADD MSTORE PUSH6 0x646472657373 PUSH1 0xD0 SHL PUSH1 0x64 DUP3 ADD MSTORE PUSH1 0x84 ADD PUSH2 0x22F JUMP JUMPDEST PUSH1 0x0 DUP1 SLOAD PUSH1 0x40 MLOAD PUSH1 0x1 PUSH1 0x1 PUSH1 0xA0 SHL SUB DUP1 DUP6 AND SWAP4 SWAP3 AND SWAP2 PUSH32 0x8BE0079C531659141344CD1FD0A4F28419497F9722A3DAAFE3B4186F6B6457E0 SWAP2 LOG3 PUSH1 0x0 DUP1 SLOAD PUSH1 0x1 PUSH1 0x1 PUSH1 0xA0 SHL SUB NOT AND PUSH1 0x1 PUSH1 0x1 PUSH1 0xA0 SHL SUB SWAP3 SWAP1 SWAP3 AND SWAP2 SWAP1 SWAP2 OR SWAP1 SSTORE JUMP JUMPDEST PUSH1 0x0 DUP3 DUP2 JUMPDEST DUP4 MLOAD DUP2 LT ISZERO PUSH2 0x6DE JUMPI PUSH2 0x6CA DUP3 DUP6 DUP4 DUP2 MLOAD DUP2 LT PUSH2 0x6BD JUMPI PUSH4 0x4E487B71 PUSH1 0xE0 SHL PUSH1 0x0 MSTORE PUSH1 0x32 PUSH1 0x4 MSTORE PUSH1 0x24 PUSH1 0x0 REVERT JUMPDEST PUSH1 0x20 MUL PUSH1 0x20 ADD ADD MLOAD PUSH2 0x6EA JUMP JUMPDEST SWAP2 POP PUSH2 0x6D7 PUSH1 0x1 DUP3 PUSH2 0xB77 JUMP JUMPDEST SWAP1 POP PUSH2 0x690 JUMP JUMPDEST POP PUSH1 0x1 SLOAD EQ SWAP4 SWAP3 POP POP POP JUMP JUMPDEST PUSH1 0x0 DUP2 DUP4 LT ISZERO PUSH2 0x726 JUMPI PUSH1 0x40 DUP1 MLOAD PUSH1 0x20 DUP2 ADD DUP6 SWAP1 MSTORE SWAP1 DUP2 ADD DUP4 SWAP1 MSTORE PUSH1 0x60 ADD JUMPDEST PUSH1 0x40 MLOAD PUSH1 0x20 DUP2 DUP4 SUB SUB DUP2 MSTORE SWAP1 PUSH1 0x40 MSTORE DUP1 MLOAD SWAP1 PUSH1 0x20 ADD KECCAK256 SWAP1 POP PUSH2 0x1FF JUMP JUMPDEST PUSH1 0x40 DUP1 MLOAD PUSH1 0x20 DUP2 ADD DUP5 SWAP1 MSTORE SWAP1 DUP2 ADD DUP5 SWAP1 MSTORE PUSH1 0x60 ADD PUSH2 0x709 JUMP JUMPDEST DUP1 CALLDATALOAD PUSH1 0x1 PUSH1 0x1 PUSH1 0xA0 SHL SUB DUP2 AND DUP2 EQ PUSH2 0x756 JUMPI PUSH1 0x0 DUP1 REVERT JUMPDEST SWAP2 SWAP1 POP JUMP JUMPDEST PUSH1 0x0 DUP3 PUSH1 0x1F DUP4 ADD SLT PUSH2 0x76B JUMPI DUP1 DUP2 REVERT JUMPDEST DUP2 CALLDATALOAD PUSH8 0xFFFFFFFFFFFFFFFF DUP2 GT ISZERO PUSH2 0x785 JUMPI PUSH2 0x785 PUSH2 0xBCB JUMP JUMPDEST PUSH2 0x798 PUSH1 0x1F DUP3 ADD PUSH1 0x1F NOT AND PUSH1 0x20 ADD PUSH2 0xB46 JUMP JUMPDEST DUP2 DUP2 MSTORE DUP5 PUSH1 0x20 DUP4 DUP7 ADD ADD GT ISZERO PUSH2 0x7AC JUMPI DUP3 DUP4 REVERT JUMPDEST DUP2 PUSH1 0x20 DUP6 ADD PUSH1 0x20 DUP4 ADD CALLDATACOPY SWAP1 DUP2 ADD PUSH1 0x20 ADD SWAP2 SWAP1 SWAP2 MSTORE SWAP3 SWAP2 POP POP JUMP JUMPDEST PUSH1 0x0 PUSH1 0x20 DUP3 DUP5 SUB SLT ISZERO PUSH2 0x7D7 JUMPI DUP1 DUP2 REVERT JUMPDEST PUSH2 0x7E0 DUP3 PUSH2 0x73F JUMP JUMPDEST SWAP4 SWAP3 POP POP POP JUMP JUMPDEST PUSH1 0x0 DUP1 PUSH1 0x40 DUP4 DUP6 SUB SLT ISZERO PUSH2 0x7F9 JUMPI DUP1 DUP2 REVERT JUMPDEST PUSH2 0x802 DUP4 PUSH2 0x73F JUMP JUMPDEST SWAP2 POP PUSH1 0x20 DUP4 ADD CALLDATALOAD PUSH8 0xFFFFFFFFFFFFFFFF DUP2 GT ISZERO PUSH2 0x81D JUMPI DUP2 DUP3 REVERT JUMPDEST PUSH2 0x829 DUP6 DUP3 DUP7 ADD PUSH2 0x75B JUMP JUMPDEST SWAP2 POP POP SWAP3 POP SWAP3 SWAP1 POP JUMP JUMPDEST PUSH1 0x0 DUP1 PUSH1 0x0 PUSH1 0x60 DUP5 DUP7 SUB SLT ISZERO PUSH2 0x847 JUMPI DUP1 DUP2 REVERT JUMPDEST PUSH2 0x850 DUP5 PUSH2 0x73F JUMP JUMPDEST SWAP3 POP PUSH1 0x20 DUP1 DUP6 ADD CALLDATALOAD PUSH8 0xFFFFFFFFFFFFFFFF DUP1 DUP3 GT ISZERO PUSH2 0x86D JUMPI DUP4 DUP5 REVERT JUMPDEST PUSH2 0x879 DUP9 DUP4 DUP10 ADD PUSH2 0x75B JUMP JUMPDEST SWAP5 POP PUSH1 0x40 DUP8 ADD CALLDATALOAD SWAP2 POP DUP1 DUP3 GT ISZERO PUSH2 0x88E JUMPI DUP4 DUP5 REVERT JUMPDEST DUP2 DUP8 ADD SWAP2 POP DUP8 PUSH1 0x1F DUP4 ADD SLT PUSH2 0x8A1 JUMPI DUP4 DUP5 REVERT JUMPDEST DUP2 CALLDATALOAD DUP2 DUP2 GT ISZERO PUSH2 0x8B3 JUMPI PUSH2 0x8B3 PUSH2 0xBCB JUMP JUMPDEST DUP1 PUSH1 0x5 SHL SWAP2 POP PUSH2 0x8C4 DUP5 DUP4 ADD PUSH2 0xB46 JUMP JUMPDEST DUP2 DUP2 MSTORE DUP5 DUP2 ADD SWAP1 DUP5 DUP7 ADD DUP5 DUP7 ADD DUP8 ADD DUP13 LT ISZERO PUSH2 0x8DE JUMPI DUP8 DUP9 REVERT JUMPDEST DUP8 SWAP6 POP JUMPDEST DUP4 DUP7 LT ISZERO PUSH2 0x900 JUMPI DUP1 CALLDATALOAD DUP4 MSTORE PUSH1 0x1 SWAP6 SWAP1 SWAP6 ADD SWAP5 SWAP2 DUP7 ADD SWAP2 DUP7 ADD PUSH2 0x8E2 JUMP JUMPDEST POP DUP1 SWAP7 POP POP POP POP POP POP POP SWAP3 POP SWAP3 POP SWAP3 JUMP JUMPDEST PUSH1 0x0 PUSH1 0x20 DUP3 DUP5 SUB SLT ISZERO PUSH2 0x922 JUMPI DUP1 DUP2 REVERT JUMPDEST POP CALLDATALOAD SWAP2 SWAP1 POP JUMP JUMPDEST PUSH1 0x0 DUP1 PUSH1 0x0 DUP1 PUSH1 0x40 DUP6 DUP8 SUB SLT ISZERO PUSH2 0x93E JUMPI DUP1 DUP2 REVERT JUMPDEST DUP5 CALLDATALOAD PUSH8 0xFFFFFFFFFFFFFFFF DUP1 DUP3 GT ISZERO PUSH2 0x955 JUMPI DUP3 DUP4 REVERT JUMPDEST DUP2 DUP8 ADD SWAP2 POP DUP8 PUSH1 0x1F DUP4 ADD SLT PUSH2 0x968 JUMPI DUP3 DUP4 REVERT JUMPDEST DUP2 CALLDATALOAD DUP2 DUP2 GT ISZERO PUSH2 0x976 JUMPI DUP4 DUP5 REVERT JUMPDEST DUP9 PUSH1 0x20 DUP3 DUP6 ADD ADD GT ISZERO PUSH2 0x987 JUMPI DUP4 DUP5 REVERT JUMPDEST PUSH1 0x20 SWAP3 DUP4 ADD SWAP7 POP SWAP5 POP SWAP1 DUP7 ADD CALLDATALOAD SWAP1 DUP1 DUP3 GT ISZERO PUSH2 0x9A1 JUMPI DUP3 DUP4 REVERT JUMPDEST DUP2 DUP8 ADD SWAP2 POP DUP8 PUSH1 0x1F DUP4 ADD SLT PUSH2 0x9B4 JUMPI DUP3 DUP4 REVERT JUMPDEST DUP2 CALLDATALOAD DUP2 DUP2 GT ISZERO PUSH2 0x9C2 JUMPI DUP4 DUP5 REVERT JUMPDEST DUP9 PUSH1 0x20 DUP3 PUSH1 0x5 SHL DUP6 ADD ADD GT ISZERO PUSH2 0x9D6 JUMPI DUP4 DUP5 REVERT JUMPDEST SWAP6 SWAP9 SWAP5 SWAP8 POP POP PUSH1 0x20 ADD SWAP5 POP POP POP JUMP JUMPDEST PUSH1 0x0 PUSH1 0x20 DUP3 DUP5 SUB SLT ISZERO PUSH2 0x9F6 JUMPI DUP1 DUP2 REVERT JUMPDEST POP MLOAD SWAP2 SWAP1 POP JUMP JUMPDEST PUSH1 0x0 DUP3 DUP5 MSTORE DUP3 DUP3 PUSH1 0x20 DUP7 ADD CALLDATACOPY DUP1 PUSH1 0x20 DUP5 DUP7 ADD ADD MSTORE PUSH1 0x20 PUSH1 0x1F NOT PUSH1 0x1F DUP6 ADD AND DUP6 ADD ADD SWAP1 POP SWAP4 SWAP3 POP POP POP JUMP JUMPDEST PUSH1 0x0 PUSH12 0xFFFFFFFFFFFFFFFFFFFFFFFF NOT DUP5 PUSH1 0x60 SHL AND DUP3 MSTORE DUP3 MLOAD PUSH2 0xA51 DUP2 PUSH1 0x14 DUP6 ADD PUSH1 0x20 DUP8 ADD PUSH2 0xB9B JUMP JUMPDEST SWAP2 SWAP1 SWAP2 ADD PUSH1 0x14 ADD SWAP4 SWAP3 POP POP POP JUMP JUMPDEST PUSH1 0x0 DUP4 MLOAD PUSH2 0xA71 DUP2 DUP5 PUSH1 0x20 DUP9 ADD PUSH2 0xB9B JUMP JUMPDEST DUP4 MLOAD SWAP1 DUP4 ADD SWAP1 PUSH2 0xA85 DUP2 DUP4 PUSH1 0x20 DUP9 ADD PUSH2 0xB9B JUMP JUMPDEST ADD SWAP5 SWAP4 POP POP POP POP JUMP JUMPDEST PUSH1 0x0 DUP3 DUP5 DUP4 CALLDATACOPY SWAP2 ADD SWAP1 DUP2 MSTORE SWAP2 SWAP1 POP JUMP JUMPDEST PUSH1 0x0 DUP3 MLOAD PUSH2 0xAB0 DUP2 DUP5 PUSH1 0x20 DUP8 ADD PUSH2 0xB9B JUMP JUMPDEST SWAP2 SWAP1 SWAP2 ADD SWAP3 SWAP2 POP POP JUMP JUMPDEST PUSH1 0x1 PUSH1 0x1 PUSH1 0xA0 SHL SUB DUP5 AND DUP2 MSTORE PUSH1 0x40 PUSH1 0x20 DUP3 ADD DUP2 SWAP1 MSTORE PUSH1 0x0 SWAP1 PUSH2 0x598 SWAP1 DUP4 ADD DUP5 DUP7 PUSH2 0x9FD JUMP JUMPDEST PUSH1 0x0 PUSH1 0x1 DUP1 PUSH1 0xA0 SHL SUB DUP7 AND DUP3 MSTORE DUP5 PUSH1 0x20 DUP4 ADD MSTORE PUSH1 0x60 PUSH1 0x40 DUP4 ADD MSTORE PUSH2 0xB07 PUSH1 0x60 DUP4 ADD DUP5 DUP7 PUSH2 0x9FD JUMP JUMPDEST SWAP7 SWAP6 POP POP POP POP POP POP JUMP JUMPDEST PUSH1 0x20 DUP1 DUP3 MSTORE DUP2 DUP2 ADD MSTORE PUSH32 0x4F776E61626C653A2063616C6C6572206973206E6F7420746865206F776E6572 PUSH1 0x40 DUP3 ADD MSTORE PUSH1 0x60 ADD SWAP1 JUMP JUMPDEST PUSH1 0x40 MLOAD PUSH1 0x1F DUP3 ADD PUSH1 0x1F NOT AND DUP2 ADD PUSH8 0xFFFFFFFFFFFFFFFF DUP2 GT DUP3 DUP3 LT OR ISZERO PUSH2 0xB6F JUMPI PUSH2 0xB6F PUSH2 0xBCB JUMP JUMPDEST PUSH1 0x40 MSTORE SWAP2 SWAP1 POP JUMP JUMPDEST PUSH1 0x0 DUP3 NOT DUP3 GT ISZERO PUSH2 0xB96 JUMPI PUSH4 0x4E487B71 PUSH1 0xE0 SHL DUP2 MSTORE PUSH1 0x11 PUSH1 0x4 MSTORE PUSH1 0x24 DUP2 REVERT JUMPDEST POP ADD SWAP1 JUMP JUMPDEST PUSH1 0x0 JUMPDEST DUP4 DUP2 LT ISZERO PUSH2 0xBB6 JUMPI DUP2 DUP2 ADD MLOAD DUP4 DUP3 ADD MSTORE PUSH1 0x20 ADD PUSH2 0xB9E JUMP JUMPDEST DUP4 DUP2 GT ISZERO PUSH2 0xBC5 JUMPI PUSH1 0x0 DUP5 DUP5 ADD MSTORE JUMPDEST POP POP POP POP JUMP JUMPDEST PUSH4 0x4E487B71 PUSH1 0xE0 SHL PUSH1 0x0 MSTORE PUSH1 0x41 PUSH1 0x4 MSTORE PUSH1 0x24 PUSH1 0x0 REVERT INVALID LOG2 PUSH5 0x6970667358 0x22 SLT KECCAK256 0xDF ISZERO MOD 0xC3 EXTCODESIZE REVERT DUP9 JUMPDEST ADD 0xB4 0xDE RETURNDATACOPY 0xD9 SGT 0xB9 SHL EXTCODECOPY ORIGIN 0xAA PUSH16 0x77755E26C5EF810963E2554464736F6C PUSH4 0x43000803 STOP CALLER ",
  "sha1": "88c4a7fd25affb9c9672b7d7863a0e0f468a8989",
  "source": "/* Please read and review the Terms and Conditions governing this\n   Merkle Drop by visiting the Trustlines Foundation homepage. Any\n   interaction with this smart contract, including but not limited to\n   claiming Trustlines Network Tokens, is subject to these Terms and\n   Conditions.\n */\n\npragma solidity 0.8.3;\n\nimport \"./NFT.sol\";\nimport \"@openzeppelin/contracts/utils/math/SafeMath.sol\";\nimport \"@openzeppelin/contracts/access/Ownable.sol\";\nimport \"./IMerkleDistributor.sol\";\n\ncontract MerkleDrop is IMerkleDistributor, Ownable {\n    address public immutable override token;\n    bytes32 public override merkleRoot;\n\n    mapping(address => mapping(string => bool)) public withdrawn;\n\n    constructor(address token_, bytes32 merkleRoot_) public {\n        token = token_;\n        merkleRoot = merkleRoot_;\n    }\n\n    function setMerkleRoot(bytes32 merkleRoot_) public onlyOwner {\n        merkleRoot = merkleRoot_;\n    }\n\n    function isClaimed(address recipient, string memory tokenURI)\n        public\n        view\n        override\n        returns (bool)\n    {\n        // recipint + tokenuri\n        return withdrawn[recipient][tokenURI];\n    }\n\n    function claim(string calldata tokenURI, bytes32[] calldata proof)\n        external\n        override\n    {\n        require(\n            !isClaimed(msg.sender, tokenURI),\n            \"You have already withdrawn your entitled token.\"\n        );\n        require(\n            verifyEntitled(msg.sender, tokenURI, proof),\n            \"The proof could not be verified.\"\n        );\n\n        uint256 tokenId = MENFT(token).mint(msg.sender, tokenURI);\n        withdrawn[msg.sender][tokenURI] = true;\n        emit Claimed(msg.sender, tokenId, tokenURI);\n    }\n\n    function verifyEntitled(\n        address recipient,\n        string memory tokenURI,\n        bytes32[] memory proof\n    ) public view returns (bool) {\n        // We need to pack the 20 bytes address to the 32 bytes value\n        // to match with the proof made with the python merkle-drop package\n        bytes32 leaf = keccak256(abi.encodePacked(abi.encodePacked(recipient, tokenURI), tokenURI));\n        return verifyProof(leaf, proof);\n    }\n\n    function verifyProof(bytes32 leaf, bytes32[] memory proof)\n        internal\n        view\n        returns (bool)\n    {\n        bytes32 currentHash = leaf;\n\n        for (uint256 i = 0; i < proof.length; i += 1) {\n            currentHash = parentHash(currentHash, proof[i]);\n        }\n\n        return currentHash == merkleRoot;\n    }\n\n    function parentHash(bytes32 a, bytes32 b) internal pure returns (bytes32) {\n        if (a < b) {\n            return keccak256(abi.encode(a, b));\n        } else {\n            return keccak256(abi.encode(b, a));\n        }\n    }\n}\n",
  "sourcePath": "contracts/MerkleDrop.sol",
  "type": "contract"
}